:020000040800F2
:100000000000032025560008A95B0008AF5B00082C
:10001000B55B0008BB5B0008C15B00080000000086
:10002000000000000000000000000000314F000848
:10003000C75B00080000000081510008E95100087A
:100040007556000875560008755600087556000864
:100050007556000875560008755600087556000854
:100060007556000875560008755600087556000844
:100070007556000875560008755600087556000834
:100080007556000875560008755600087556000824
:100090007556000875560008755600087556000814
:1000A0007556000875560008755600087556000804
:1000B00075560008755600087556000875560008F4
:1000C00075560008755600087556000875560008E4
:1000D00075560008E95B000875560008755600085B
:1000E00075560008755600087556000875560008C4
:1000F00075560008755600087556000875560008B4
:1001000075560008755600087556000875560008A3
:100110007556000875560008D55B0008FD5B0008A1
:100120007556000875560008755600087556000883
:100130007556000875560008755600087556000873
:100140007556000875560008755600087556000863
:100150007556000875560008755600087556000853
:100160007556000875560008755600087556000843
:100170007556000875560008755600087556000833
:100180007556000875560008755600087556000823
:100190007556000875560008755600087556000813
:0C01A000755600087556000875560008DA
:1001B00010B5054C237833B9044B13B10448AFF3A1
:1001C00000800123237010BD780000200000000093
:1001D000606E000808B5034B1BB103490348AFF339
:1001E000008008BD000000007C000020606E000858
:1001F000034613F8012B002AFBD1181A0138704767
:1002000001F0FF01102A2BDB10F0070F08D010F8C7
:10021000013B013A8B422DD010F0070F42B3F6D1CB
:10022000F0B441EA012141EA014122F007047FF0E4
:1002300000070023F0E80256083C85EA010586EA3B
:10024000010685FA47F5A3FA87F586FA47F6A5FA77
:1002500087F68EB9EED1F0BC01F0FF0102F0070283
:1002600032B110F8013B013A83EA010313B1F8D12E
:100270000020704701387047002D06BF354603380F
:10028000073815F0010F07D1013015F4807F02BF48
:10029000013015F4C03F0130F0BC0138704700BF99
:1002A00053B94AB9002908BF00281CBF4FF0FF31DD
:1002B0004FF0FF3000F074B9ADF1080C6DE904CED9
:1002C00000F006F8DDF804E0DDE9022304B0704731
:1002D0002DE9F047089D04468E46002B4DD18A42F9
:1002E000944669D9B2FA82F252B101FA02F3C2F12C
:1002F000200120FA01F10CFA02FC41EA030E9440BD
:100300004FEA1C48210CBEFBF8F61FFA8CF708FBDD
:1003100016E341EA034306FB07F199420AD91CEBB5
:10032000030306F1FF3080F01F81994240F21C81E7
:10033000023E63445B1AA4B2B3FBF8F008FB10332F
:1003400044EA034400FB07F7A7420AD91CEB040464
:1003500000F1FF3380F00A81A74240F20781644434
:10036000023840EA0640E41B00261DB1D4400023B9
:10037000C5E900433146BDE8F0878B4209D9002D1D
:1003800000F0EF800026C5E9000130463146BDE8A7
:10039000F087B3FA83F6002E4AD18B4202D3824211
:1003A00000F2F980841A61EB030301209E46002DC0
:1003B000E0D0C5E9004EDDE702B9FFDEB2FA82F215
:1003C000002A40F09280A1EB0C014FEA1C471FFA73
:1003D0008CFE0126200CB1FBF7F307FB131140EA5A
:1003E00001410EFB03F0884208D91CEB010103F127
:1003F000FF3802D2884200F2CB804346091AA4B2E9
:10040000B1FBF7F007FB101144EA01440EFB00FEBC
:10041000A64508D91CEB040400F1FF3102D2A64521
:1004200000F2BB800846A4EB0E0440EA03409CE7C0
:10043000C6F12007B34022FA07FC4CEA030C20FA6D
:1004400007F401FA06F31C43F9404FEA1C4900FA8D
:1004500006F3B1FBF9F8200C1FFA8CFE09FB18110A
:1004600040EA014108FB0EF0884202FA06F20BD97D
:100470001CEB010108F1FF3A80F08880884240F2CD
:100480008580A8F102086144091AA4B2B1FBF9F011
:1004900009FB101144EA014100FB0EFE8E4508D90C
:1004A0001CEB010100F1FF346CD28E456AD9023891
:1004B000614440EA0840A0FB0294A1EB0E01A14276
:1004C000C846A64656D353D05DB1B3EB080261EBE4
:1004D0000E0101FA07F722FA06F3F1401F43C5E9BE
:1004E000007100263146BDE8F087C2F12003D840F4
:1004F0000CFA02FC21FA03F3914001434FEA1C4736
:100500001FFA8CFEB3FBF7F007FB10360B0C43EA27
:10051000064300FB0EF69E4204FA02F408D91CEBD7
:10052000030300F1FF382FD29E422DD902386344D5
:100530009B1B89B2B3FBF7F607FB163341EA034175
:1005400006FB0EF38B4208D91CEB010106F1FF38C4
:1005500016D28B4214D9023E6144C91A46EA0046BB
:1005600038E72E46284605E70646E3E61846F8E64D
:100570004B45A9D2B9EB020864EB0C0E0138A3E796
:100580004646EAE7204694E74046D1E7D0467BE777
:10059000023B614432E7304609E76444023842E7EF
:1005A000704700BF80B588B000AF78600B467B8095
:1005B00007F10C0300221A605A609A60DA601A612F
:1005C000786800F013F87B88FB6001233B6100230F
:1005D0007B610223BB6107F10C031946786800F0C8
:1005E0007DFB00BF2037BD4680BD000080B58AB0CE
:1005F00000AF78607B684F4A93420ED100237B6244
:100600004D4B1B6B4C4A43F0010313634A4B1B6B6E
:1006100003F001037B627B6A87E07B68474A934271
:100620000ED100233B62444B1B6B434A43F0020351
:100630001363414B1B6B03F002033B623B6A74E0A4
:100640007B683F4A93420ED10023FB613A4B1B6B00
:10065000394A43F004031363374B1B6B03F0040365
:10066000FB61FB6961E07B68364A93420ED100234F
:10067000BB61314B1B6B304A43F0080313632E4BB5
:100680001B6B03F00803BB61BB694EE07B682E4A1D
:1006900093420ED100237B61274B1B6B264A43F00C
:1006A00010031363244B1B6B03F010037B617B6906
:1006B0003BE07B68254A93420ED100233B611E4BF1
:1006C0001B6B1D4A43F0200313631B4B1B6B03F092
:1006D00020033B613B6928E07B681D4A93420ED1B1
:1006E0000023FB60144B1B6B134A43F0400313635E
:1006F000114B1B6B03F04003FB60FB6815E07B684C
:10070000144A93420ED10023BB600B4B1B6B0A4A69
:1007100043F080031363084B1B6B03F08003BB6043
:10072000BB6802E00C4805F09BFB00BF2837BD46C4
:1007300080BD00BF000002400038024000040240BB
:1007400000080240000C0240001002400014024069
:1007500000180240001C0240786E000880B582B08C
:1007600000AF78600B467B807B881946786800F084
:1007700061FC00BF0837BD4680BD000080B500AFFA
:100780001B4B1C4A1A601A4B1B4A5A60184B00221A
:100790009A60174B0022DA60154B4FF480421A61C1
:1007A000134B00225A61124B00229A61104B002217
:1007B000DA610F4B00221A620D4800F055FC034627
:1007C000002B01D004F0F0FF0021094800F090FD5B
:1007D0000346002B01D004F0E7FF0021044800F09D
:1007E000C3FD0346002B01D004F0DEFF00BF80BD37
:1007F0009400002000540040A086010080B582B023
:1008000000AF78600A4A7B681360094B01225A6086
:10081000074B44F61F62DA60054801F0FFFA034611
:10082000002B01D004F0C0FF00BF0837BD4680BDDB
:10083000E800002080B500AF024801F03FFB00BF98
:1008400080BD00BFE800002080B582B000AF7860B6
:100850007B681B68094A934201D100F0ABF87B68C2
:100860001B68074A934204D1064B1B680133054AB3
:10087000136000BF0837BD4680BD00BF00140040B4
:10088000001000403001002080B500AF114B124A2B
:100890001A60104B4FF4E1325A600E4B00229A60FE
:1008A0000C4B0022DA600B4B00221A61094B0C2220
:1008B0005A61084B00229A61064B0022DA61054812
:1008C00001F050FD0346002B01D004F06DFF00BF86
:1008D00080BD00BF34010020001001400FB480B57E
:1008E00096B000AF07F164037B6007F108037A68F4
:1008F000396E184605F0D2FA07F108031846FFF7DB
:1009000077FC03469AB207F108010A23044801F074
:1009100076FD00BF5837BD46BDE8804004B0704743
:100920003401002080B582B000AF7860054B012211
:100930001A7001220449054801F0F3FD00BF083791
:10094000BD4680BD78010020242F01203401002005
:1009500080B582B000AF786001227968034801F069
:10096000E0FD00BF0837BD4680BD00BF3401002058
:1009700080B500AF0E4B1B680D4A43F40073136043
:100980000B4B1B680A4A43F480631360084B1B68D7
:10099000074A43F480731360032000F0D8F8002066
:1009A00005F086F804F092FF0023184680BD00BFD2
:1009B000003C024080B400AF064B1B781A46064B41
:1009C0001B681344044A136000BFBD465DF8047BF6
:1009D000704700BF040000207C01002080B400AFFD
:1009E000034B1B681846BD465DF8047B704700BF8B
:1009F0007C01002080B485B000AF78607B6803F094
:100A00000703FB600C4BDB68BB60BA684FF6FF0363
:100A10001340BB60FB681A02BB68134343F0BF631B
:100A200043F40033BB60044ABB68D36000BF143793
:100A3000BD465DF8047B704700ED00E080B400AF78
:100A4000044BDB681B0A03F007031846BD465DF83C
:100A5000047B704700ED00E080B483B000AF034634
:100A6000FB7197F90730002B0BDBFB7903F01F02BA
:100A7000074997F907305B09012000FA02F241F8B3
:100A8000232000BF0C37BD465DF8047B704700BFD4
:100A900000E100E080B483B000AF03463960FB7131
:100AA00097F90730002B0ADB3B68DAB20C4997F95B
:100AB00007301201D2B20B4483F800230AE03B68EE
:100AC000DAB20849FB7903F00F03043B1201D2B2FA
:100AD0000B441A7600BF0C37BD465DF8047B7047A7
:100AE00000E100E000ED00E080B489B000AFF86004
:100AF000B9607A60FB6803F00703FB61FB69C3F12F
:100B00000703042B28BF0423BB61FB690433062BB6
:100B100002D9FB69033B00E000237B614FF0FF3209
:100B2000BB6902FA03F3DA43BB681A407B699A4057
:100B30004FF0FF317B6901FA03F3D9437B680B4027
:100B4000134318462437BD465DF8047B704780B5D3
:100B500082B000AF78607868FFF74CFF00BF0837BD
:100B6000BD4680BD80B586B000AF0346B9607A60EF
:100B7000FB7300237B61FFF761FF78617A68B968D6
:100B80007869FFF7B1FF024697F90F301146184612
:100B9000FFF780FF00BF1837BD4680BD80B582B02B
:100BA00000AF0346FB7197F907301846FFF754FF73
:100BB00000BF0837BD4680BD80B584B000AF786007
:100BC0007B689B6DFB60FFF709FFB8607B6893F85B
:100BD0003530DBB2022B08D07B6880225A657B68F7
:100BE000002283F83420012352E07B681B681A68D6
:100BF0007B681B6822F016021A607B681B685A69C2
:100C00007B681B6822F080025A617B681B6C002B9A
:100C100003D17B689B6C002B07D07B681B681A682C
:100C20007B681B6822F008021A607B681B681A68E0
:100C30007B681B6822F001021A6013E0FFF7CEFE0A
:100C40000246BB68D31A052B0CD97B6820225A6553
:100C50007B68032283F835207B68002283F83420E8
:100C6000032315E07B681B681B6803F00103002B5E
:100C7000E4D17B68DB6D3F229A40FB689A607B6819
:100C8000012283F835207B68002283F8342000237A
:100C900018461037BD4680BD80B483B000AF786081
:100CA0007B6893F83530DBB2022B04D07B6880225E
:100CB0005A6501230CE07B68052283F835207B68A8
:100CC0001B681A687B681B6822F001021A60002307
:100CD00018460C37BD465DF8047B704780B489B078
:100CE00000AF7860396000237B6100233B61002303
:100CF000BB610023FB6177E10122FB6902FA03F388
:100D00007B613B681B687A6913403B613A697B6988
:100D10009A4240F066813B685B6803F00303012B55
:100D200005D03B685B6803F00303022B30D17B687E
:100D30009B68BB61FB695B00032202FA03F3DB43A0
:100D4000BA691340BB613B68DA68FB695B0002FA71
:100D500003F3BA691343BB617B68BA699A607B6825
:100D60005B68BB610122FB6902FA03F3DB43BA69EA
:100D70001340BB613B685B681B0903F00102FB6920
:100D800002FA03F3BA691343BB617B68BA695A601C
:100D90003B685B6803F00303032B17D07B68DB68B9
:100DA000BB61FB695B00032202FA03F3DB43BA6910
:100DB0001340BB613B689A68FB695B0002FA03F36E
:100DC000BA691343BB617B68BA69DA603B685B68E8
:100DD00003F00303022B23D1FB69DA087B68083296
:100DE00053F82230BB61FB6903F007039B000F221D
:100DF00002FA03F3DB43BA691340BB613B681A692B
:100E0000FB6903F007039B0002FA03F3BA6913437B
:100E1000BB61FB69DA087B680832B96943F82210C4
:100E20007B681B68BB61FB695B00032202FA03F36A
:100E3000DB43BA691340BB613B685B6803F00302A4
:100E4000FB695B0002FA03F3BA691343BB617B6879
:100E5000BA691A603B685B6803F44033002B00F00A
:100E6000C0800023FB60664B5B6C654A43F48043A3
:100E70005364634B5B6C03F48043FB60FB68614A23
:100E8000FB699B08023352F82330BB61FB6903F016
:100E900003039B000F2202FA03F3DB43BA691340FA
:100EA000BB617B68584A934237D07B68574A93426C
:100EB00031D07B68564A93422BD07B68554A934287
:100EC00025D07B68544A93421FD07B68534A934293
:100ED00019D07B68524A934213D07B68514A93429F
:100EE0000DD07B68504A934207D07B684F4A9342AB
:100EF00001D1092312E00A2310E008230EE00723A2
:100F00000CE006230AE0052308E0042306E003239F
:100F100004E0022302E0012300E00023FA6902F06A
:100F2000030292009340BA691343BB613549FB69E0
:100F30009B080233BA6941F823203D4B9B68BB6193
:100F40003B69DB43BA691340BB613B685B6803F4F0
:100F50008013002B03D0BA693B691343BB61344A49
:100F6000BB699360324BDB68BB613B69DB43BA69A9
:100F70001340BB613B685B6803F40013002B03D094
:100F8000BA693B691343BB61294ABB69D360284BEB
:100F90005B68BB613B69DB43BA691340BB613B687B
:100FA0005B6803F40033002B03D0BA693B69134339
:100FB000BB611F4ABB6953601D4B1B68BB613B692A
:100FC000DB43BA691340BB613B685B6803F4803361
:100FD000002B03D0BA693B691343BB61144ABB6958
:100FE0001360FB690133FB61FB690F2B7FF684AE55
:100FF00000BF00BF2437BD465DF8047B704700BFCB
:101000000038024000380140000002400004024065
:1010100000080240000C0240001002400014024090
:1010200000180240001C0240002002400024024040
:10103000003C014080B485B000AF78600B467B80F7
:101040007B685B69FB607A88FB6813401A04FB6865
:10105000D9437B880B401A437B689A6100BF1437E1
:10106000BD465DF8047B704780B584B000AF786002
:101070007B68002B01D101232BE17B6893F83D3085
:10108000DBB2002B06D17B68002283F83C20786815
:1010900004F0C6FC7B68242283F83D207B681B6833
:1010A0001A687B681B6822F001021A607B681B6863
:1010B0001A687B681B6842F400421A607B681B68F0
:1010C0001A687B681B6822F400421A6000F04CFE2C
:1010D000F8607B685B68814A934207D8FB68804A66
:1010E000934294BF01230023DBB206E0FB687D4AF4
:1010F000934294BF01230023DBB2002B01D00123D4
:10110000E7E0FB68784AA2FB03239B0CBB607B688B
:101110001B685B6823F03F017B681B68BA680A4361
:101120005A607B681B681B6A23F03F017B685B6821
:101130006A4A934202D8BB68013309E0BB684FF4A6
:10114000967202FB03F3694AA2FB03239B09013356
:101150007A6812680B4313627B681B68DB6923F4AF
:101160004F4222F0FF027B685B685C498B4219D8D2
:10117000FB68591E7B685B685B00B1FBF3F3591C8D
:1011800040F6FC730B40002B0AD0FB68591E7B68AD
:101190005B685B00B1FBF3F30133C3F30B0351E076
:1011A00004234FE07B689B68002B11D1FB68581E1D
:1011B0007B6859680B465B000B44B0FBF3F30133CB
:1011C000C3F30B03002B0CBF01230023DBB212E09F
:1011D000FB68581E7B6859680B469B000B449900BE
:1011E0000B44B0FBF3F30133C3F30B03002B0CBF31
:1011F00001230023DBB2002B01D0012322E07B6816
:101200009B68002B0ED1FB68581E7B6859680B4603
:101210005B000B44B0FBF3F30133C3F30B0343F464
:1012200000430FE0FB68581E7B6859680B469B0023
:101230000B4499000B44B0FBF3F30133C3F30B03EE
:1012400043F44043796809681343CB617B681B68AA
:101250001B6823F0C0017B68DA697B681B6A1A434C
:101260007B681B680A431A607B681B689B6823F4D1
:10127000034323F0FF037A6811697A68D268114347
:101280007A6812680B4393607B681B68DB6823F005
:10129000FF017B685A697B689B691A437B681B68FE
:1012A0000A43DA607B681B681A687B681B6842F037
:1012B00001021A607B6800221A647B68202283F88E
:1012C0003D207B6800221A637B68002283F83E2061
:1012D000002318461037BD4680BD00BFA086010020
:1012E0007F841E00FF083D0083DE1B43D34D621048
:1012F00080B483B000AF786039607B6893F83D308C
:10130000DBB2202B29D17B68242283F83D207B6827
:101310001B681A687B681B6822F001021A607B68F0
:101320001B685A6A7B681B6822F010025A627B684D
:101330001B68596A7B681B683A680A435A627B6873
:101340001B681A687B681B6842F001021A607B68A0
:10135000202283F83D20002300E0022318460C37AA
:10136000BD465DF8047B704780B485B000AF7860FF
:1013700039600023FB817B6893F83D30DBB2202B82
:101380002AD17B68242283F83D207B681B681A6879
:101390007B681B6822F001021A607B681B685B6A2D
:1013A000FB81FB8923F00F03FB813B689AB2FB8929
:1013B0001343FB817B681B68FA895A627B681B6850
:1013C0001A687B681B6842F001021A607B68202261
:1013D00083F83D20002300E0022318461437BD4661
:1013E0005DF8047B7047000080B582B000AF002339
:1013F0007B6000233B60204B1B6C1F4A43F08053F3
:1014000013641D4B1B6C03F080533B603B681B4B0C
:1014100001221A60FFF7E2FA786009E0FFF7DEFACE
:1014200002467B68D31AB3F57A7F01D903231FE004
:10143000134B5B6803F48033B3F5803FEED1114B5F
:1014400001221A60FFF7CAFA786009E0FFF7C6FACE
:1014500002467B68D31AB3F57A7F01D9032307E0EC
:10146000074B5B6803F40033B3F5003FEED1002374
:1014700018460837BD4680BD0038024040000E4285
:101480000070004044000E4280B586B000AF786026
:101490007B68002B01D1012367E27B681B6803F0A6
:1014A0000103002B75D0884B9B6803F00C03042BC1
:1014B0000CD0854B9B6803F00C03082B12D1824B98
:1014C0005B6803F48003B3F5800F0BD17E4B1B6880
:1014D00003F40033002B5BD07B685B68002B57D193
:1014E000012342E27B685B68B3F5803F06D1764B0F
:1014F0001B68754A43F4803313601DE07B685B68AA
:10150000B3F5A02F0CD1704B1B686F4A43F48023B6
:1015100013606D4B1B686C4A43F4803313600BE01F
:10152000694B1B68684A23F480331360664B1B6861
:10153000654A23F4802313607B685B68002B13D01B
:10154000FFF74CFA386108E0FFF748FA02463B69BA
:10155000D31A642B01D9032307E25B4B1B6803F406
:101560000033002BF0D014E0FFF738FA386108E0C0
:10157000FFF734FA02463B69D31A642B01D90323DF
:10158000F3E1514B1B6803F40033002BF0D100E072
:1015900000BF7B681B6803F00203002B63D04A4B3B
:1015A0009B6803F00C03002B0BD0474B9B6803F0A8
:1015B0000C03082B1CD1444B5B6803F48003002B05
:1015C00016D1414B1B6803F00203002B05D07B684A
:1015D000DB68012B01D00123C7E13B4B1B6823F0E3
:1015E000F8027B681B69DB00374913430B603AE064
:1015F0007B68DB68002B20D0344B01221A60FFF798
:10160000EDF9386108E0FFF7E9F902463B69D31AC2
:10161000022B01D90323A8E12B4B1B6803F0020323
:10162000002BF0D0284B1B6823F0F8027B681B6965
:10163000DB00254913430B6015E0244B00221A60A0
:10164000FFF7CCF9386108E0FFF7C8F902463B69BB
:10165000D31A022B01D9032387E11B4B1B6803F02C
:101660000203002BF0D17B681B6803F00803002BFA
:1016700036D07B685B69002B16D0154B01221A60AF
:10168000FFF7ACF9386108E0FFF7A8F902463B69BB
:10169000D31A022B01D9032367E10B4B5B6F03F0D5
:1016A0000203002BF0D01BE0094B00221A60FFF769
:1016B00095F938610EE0FFF791F902463B69D31ABC
:1016C000022B07D9032350E10038024000004742B3
:1016D000800E4742884B5B6F03F00203002BEAD178
:1016E0007B681B6803F00403002B00F09780002345
:1016F000FB75814B1B6C03F08053002B0FD1002333
:10170000BB607D4B1B6C7C4A43F0805313647A4B67
:101710001B6C03F08053BB60BB680123FB75774BE8
:101720001B6803F48073002B18D1744B1B68734A39
:1017300043F480731360FFF751F9386108E0FFF755
:101740004DF902463B69D31A022B01D903230CE160
:101750006A4B1B6803F48073002BF0D07B689B6896
:10176000012B06D1644B1B6F634A43F001031367DF
:101770001CE07B689B68052B0CD15F4B1B6F5E4A9E
:1017800043F0040313675C4B1B6F5B4A43F0010398
:1017900013670BE0584B1B6F574A23F00103136785
:1017A000554B1B6F544A23F0040313677B689B68F7
:1017B000002B15D0FFF712F938610AE0FFF70EF998
:1017C00002463B69D31A41F28832934201D903237E
:1017D000CBE0494B1B6F03F00203002BEED014E06B
:1017E000FFF7FCF838610AE0FFF7F8F802463B69BA
:1017F000D31A41F28832934201D90323B5E03E4B1C
:101800001B6F03F00203002BEED1FB7D012B05D1F2
:10181000394B1B6C384A23F0805313647B689B69F7
:10182000002B00F0A180344B9B6803F00C03082BC5
:101830005CD07B689B69022B41D1314B00221A603E
:10184000FFF7CCF8386108E0FFF7C8F802463B69BB
:10185000D31A022B01D9032387E0274B1B6803F01F
:101860000073002BF0D17B68DA697B681B6A1A432E
:101870007B685B6A9B011A437B689B6A5B08013B40
:101880001B041A437B68DB6A1B061B4913434B602E
:101890001B4B01221A60FFF7A1F8386108E0FFF73F
:1018A0009DF802463B69D31A022B01D903235CE061
:1018B000114B1B6803F00073002BF0D054E0104B69
:1018C00000221A60FFF78AF8386108E0FFF786F80F
:1018D00002463B69D31A022B01D9032345E0064B8C
:1018E0001B6803F00073002BF0D13DE07B689B691F
:1018F000012B07D1012338E000380240007000407E
:10190000600047421B4B5B68FB607B689B69012B57
:1019100028D0FB6803F480027B68DB699A4221D1FE
:10192000FB6803F03F027B681B6A9A421AD1FA688F
:1019300047F6C07313407A68526A9201934211D1FC
:10194000FB6803F440327B689B6A5B08013B1B0425
:101950009A4207D1FB6803F070627B68DB6A1B0662
:101960009A4201D0012300E0002318461837BD46F3
:1019700080BD00BF0038024080B584B000AF786001
:1019800039607B68002B01D10123CCE0684B1B68D8
:1019900003F00F033A689A420CD9654B3A68D2B209
:1019A0001A70634B1B6803F00F033A689A4201D028
:1019B0000123B8E07B681B6803F00203002B20D0F2
:1019C0007B681B6803F00403002B05D0594B9B6810
:1019D000584A43F4E05393607B681B6803F00803A4
:1019E000002B05D0534B9B68524A43F460439360ED
:1019F000504B9B6823F0F0027B689B684D49134372
:101A00008B607B681B6803F00103002B44D07B686C
:101A10005B68012B07D1474B1B6803F40033002B95
:101A200019D101237FE07B685B68022B03D07B68C0
:101A30005B68032B07D13F4B1B6803F00073002B3F
:101A400009D101236FE03B4B1B6803F00203002B1D
:101A500001D1012367E0374B9B6823F003027B68C9
:101A60005B68344913438B60FEF7B8FFF8600AE007
:101A7000FEF7B4FF0246FB68D31A41F28832934264
:101A800001D903234FE02B4B9B6803F00C027B68CA
:101A90005B689B009A42EBD1254B1B6803F00F0358
:101AA0003A689A420CD2224B3A68D2B21A70204B52
:101AB0001B6803F00F033A689A4201D0012332E019
:101AC0007B681B6803F00403002B08D0194B9B684C
:101AD00023F4E0527B68DB68164913438B607B6814
:101AE0001B6803F00803002B09D0124B9B6823F4FA
:101AF00060427B681B69DB000E4913438B6000F07A
:101B000021F802460B4B9B681B0903F00F030A499F
:101B1000CB5C22FA03F3094A1360094B1B68184691
:101B200003F0C6FF002318461037BD4680BD00BF36
:101B3000003C024000380240E46E00081000002023
:101B4000000000202DE9B04F94B000AF00237B646B
:101B50000023FB6400233B640023BB64794B9B6838
:101B600003F00C03082B0DD0082B00F2E180002BB2
:101B700002D0042B03D0DBE0734BBB64DBE0734B80
:101B8000BB64D8E06F4B5B6803F03F037B646D4B35
:101B90005B6803F48003002B63D06A4B5B689B098E
:101BA0000022BB63FA63BB6BC3F308033B630023F0
:101BB0007B63D7E90C4522462B464FF000004FF0DF
:101BC0000001590141EAD261500102460B4621460B
:101BD000511A3961294663EB01037B614FF0000222
:101BE0004FF00003D7E904AB59468B01514643EA55
:101BF000916351468A015146B2EB0108594663EBA5
:101C000001094FF000024FF000034FEAC90343EA15
:101C100058734FEAC80290469946234618EB0303CF
:101C2000BB602B4649EB0303FB604FF000024FF013
:101C30000003D7E9024529464B02214643EAD15326
:101C400021464A02104619467B6C0022BB62FA62AA
:101C5000D7E90A23FEF724FB02460B461346FB6432
:101C600058E0384B5B689B09002218461146C0F3C8
:101C700008033B6200237B62D7E9088942464B4652
:101C80004FF000004FF00001590141EAD2615001CC
:101C900002460B464146B2EB010A494663EB010B93
:101CA0004FF000024FF000034FEA8B1343EA9A63B0
:101CB0004FEA8A12B2EB0A0463EB0B054FF0000205
:101CC0004FF00003EB0043EA5473E20014461D4654
:101CD0004346E3183B604B4645EB03037B604FF004
:101CE00000024FF00003D7E9004529468B02214648
:101CF00043EA915321468A02104619467B6C002222
:101D0000BB61FA61D7E90623FEF7CAFA02460B4621
:101D10001346FB640B4B5B681B0C03F0030301339E
:101D20005B003B64FA6C3B6CB2FBF3F3BB6402E018
:101D3000054BBB6400BFBB6C18465037BD46BDE8C1
:101D4000B08F00BF003802400024F40000127A0077
:101D500080B400AF034B1B681846BD465DF8047B9A
:101D6000704700BF1000002080B500AFFFF7F0FF04
:101D70000246054B9B689B0A03F007030349CB5CB3
:101D800022FA03F3184680BD00380240F46E0008C2
:101D900080B500AFFFF7DCFF0246054B9B685B0B8D
:101DA00003F007030349CB5C22FA03F3184680BD16
:101DB00000380240F46E000880B483B000AF786051
:101DC00039607B680F221A60124B9B6803F0030294
:101DD0007B685A600F4B9B6803F0F0027B689A6047
:101DE0000C4B9B6803F4E0527B68DA60094B9B68FC
:101DF000DB0803F4E0527B681A61074B1B6803F0B1
:101E00000F023B681A6000BF0C37BD465DF8047BCB
:101E1000704700BF00380240003C024080B582B0ED
:101E200000AF78607B68002B01D1012341E07B6823
:101E300093F83D30DBB2002B06D17B68002283F89B
:101E40003C20786803F07CFD7B68022283F83D200B
:101E50007B681A687B6804331946104600F0CEF997
:101E60007B68012283F846207B68012283F83E20AC
:101E70007B68012283F83F207B68012283F84020A1
:101E80007B68012283F841207B68012283F842208D
:101E90007B68012283F843207B68012283F8442079
:101EA0007B68012283F845207B68012283F83D206E
:101EB000002318460837BD4680BD000080B485B0B9
:101EC00000AF78607B6893F83D30DBB2012B01D026
:101ED00001234EE07B68022283F83D207B681B686B
:101EE000DA687B681B6842F00102DA607B681B6875
:101EF000234A934222D07B681B68B3F1804F1DD0E8
:101F00007B681B681F4A934218D07B681B681E4A77
:101F1000934213D07B681B681C4A93420ED07B68A7
:101F20001B681B4A934209D07B681B68194A93427D
:101F300004D07B681B68184A934211D17B681B68E8
:101F40009B6803F00703FB60FB68062B10D07B68DF
:101F50001B681A687B681B6842F001021A6007E080
:101F60007B681B681A687B681B6842F001021A6074
:101F7000002318461437BD465DF8047B704700BF48
:101F8000000001400004004000080040000C004038
:101F900000040140004001400018004080B582B0BC
:101FA00000AF78607B681B681B6903F00203022B9B
:101FB00022D17B681B68DB6803F00203022B1BD174
:101FC0007B681B686FF002021A617B6801221A7736
:101FD0007B681B689B6903F00303002B03D07868C0
:101FE00000F0EEF805E0786800F0E0F8786800F0BE
:101FF000F1F87B6800221A777B681B681B6903F085
:102000000403042B22D17B681B68DB6803F0040304
:10201000042B1BD17B681B686FF004021A617B687C
:1020200002221A777B681B689B6903F44073002BBC
:1020300003D0786800F0C4F805E0786800F0B6F8DE
:10204000786800F0C7F87B6800221A777B681B6805
:102050001B6903F00803082B22D17B681B68DB682F
:1020600003F00803082B1BD17B681B686FF0080284
:102070001A617B6804221A777B681B68DB6903F0AE
:102080000303002B03D0786800F09AF805E0786825
:1020900000F08CF8786800F09DF87B6800221A77D1
:1020A0007B681B681B6903F01003102B22D17B682F
:1020B0001B68DB6803F01003102B1BD17B681B68C7
:1020C0006FF010021A617B6808221A777B681B6820
:1020D000DB6903F44073002B03D0786800F070F8DC
:1020E00005E0786800F062F8786800F073F87B68C3
:1020F00000221A777B681B681B6903F00103012B20
:102100000ED17B681B68DB6803F00103012B07D14C
:102110007B681B686FF001021A617868FEF794FB18
:102120007B681B681B6903F08003802B0ED17B68E2
:102130001B68DB6803F08003802B07D17B681B687A
:102140006FF080021A61786800F002F97B681B6802
:102150001B6903F04003402B0ED17B681B68DB68D2
:1021600003F04003402B07D17B681B686FF04002EF
:102170001A61786800F038F87B681B681B6903F007
:102180002003202B0ED17B681B68DB6803F0200343
:10219000202B07D17B681B686FF020021A617868DA
:1021A00000F0CCF800BF0837BD4680BD80B483B0D6
:1021B00000AF786000BF0C37BD465DF8047B704708
:1021C00080B483B000AF786000BF0C37BD465DF8C7
:1021D000047B704780B483B000AF786000BF0C37D9
:1021E000BD465DF8047B704780B483B000AF786073
:1021F00000BF0C37BD465DF8047B704780B485B0E6
:1022000000AF786039607B681B68FB607B68404A80
:10221000934213D07B68B3F1804F0FD07B683D4A67
:1022200093420BD07B683C4A934207D07B683B4A81
:10223000934203D07B683A4A934208D1FB6823F06B
:102240007003FB603B685B68FA681343FB607B6864
:102250002F4A93422BD07B68B3F1804F27D07B6805
:102260002C4A934223D07B682B4A93421FD07B6831
:102270002A4A93421BD07B68294A934217D07B6835
:10228000284A934213D07B68274A93420FD07B6839
:10229000264A93420BD07B68254A934207D07B683D
:1022A000244A934203D07B68234A934208D1FB68B7
:1022B00023F44073FB603B68DB68FA681343FB6000
:1022C000FB6823F080023B685B691343FB607B681B
:1022D000FA681A603B689A687B68DA623B681A6839
:1022E0007B689A627B680A4A934203D07B680C4AF7
:1022F000934203D13B681A697B681A637B680122A9
:102300005A6100BF1437BD465DF8047B704700BFBB
:10231000000001400004004000080040000C0040A4
:1023200000040140004001400044014000480140D9
:1023300000180040001C00400020004080B483B022
:1023400000AF786000BF0C37BD465DF8047B704776
:1023500080B483B000AF786000BF0C37BD465DF835
:10236000047B704780B582B000AF78607B68002B3B
:1023700001D101233FE07B6893F83D30DBB2002BB5
:1023800006D17B68002283F83C20786803F0F8FAD5
:102390007B68242283F83D207B681B68DA687B68B1
:1023A0001B6822F40052DA60786800F0DFFD7B6879
:1023B0001B681A697B681B6822F490421A617B686B
:1023C0001B685A697B681B6822F02A025A617B6885
:1023D0001B68DA687B681B6842F40052DA607B682D
:1023E00000221A647B68202283F83D207B6820222B
:1023F00083F83E20002318460837BD4680BD80B5CF
:102400008AB002AFF860B9603B601346FB800023DE
:102410007B61FB6893F83D30DBB2202B7CD1BB683D
:10242000002B02D0FB88002B01D1012375E0FB6853
:1024300093F83C30012B01D102236EE0FB680122AE
:1024400083F83C20FB6800221A64FB68212283F891
:102450003D20FEF7C3FA7861FB68FA889A84FB682E
:10246000FA88DA84FB689B68B3F5805F08D1FB6863
:102470001B69002B04D10023FB61BB68BB6103E037
:10248000BB68FB610023BB61FB68002283F83C2032
:102490002AE03B6800937B6900228021F86800F005
:1024A0001FFB0346002B01D0032336E0FB69002B02
:1024B0000BD1BB691B881A46FB681B68C2F3080274
:1024C0005A60BB690233BB6107E0FB691A78FB689D
:1024D0001B685A60FB690133FB61FB68DB8C9BB2B4
:1024E000013B9AB2FB68DA84FB68DB8C9BB2002B61
:1024F000CFD13B6800937B6900224021F86800F04F
:10250000EFFA0346002B01D0032306E0FB682022EC
:1025100083F83D20002300E0022318462037BD4603
:1025200080BD80B584B000AFF860B9601346FB8011
:10253000FB6893F83E30DBB2202B1DD1BB68002B2B
:1025400002D0FB88002B01D1012316E0FB6893F831
:102550003C30012B01D102230FE0FB68012283F8FC
:102560003C20FB6800221A63FB881A46B968F868A9
:1025700000F024FB034600E0022318461037BD4656
:1025800080BD000080B5BAB000AF78607B681B6882
:102590001B68C7F8E4307B681B68DB68C7F8E0306D
:1025A0007B681B685B69C7F8DC300023C7F8D8304C
:1025B0000023C7F8D430D7F8E43003F00F03C7F88E
:1025C000D830D7F8D830002B0FD1D7F8E43003F04B
:1025D0002003002B09D0D7F8E03003F02003002BB4
:1025E00003D0786800F007FC56E2D7F8D830002B0B
:1025F00000F0DE80D7F8DC3003F00103002B06D1B9
:10260000D7F8E03003F49073002B00F0D180D7F8B6
:10261000E43003F00103002B0BD0D7F8E03003F4D3
:102620008073002B05D07B681B6C43F001027B6834
:102630001A64D7F8E43003F00403002B0BD0D7F86A
:10264000DC3003F00103002B05D07B681B6C43F0EA
:1026500002027B681A64D7F8E43003F00203002B0F
:102660000BD0D7F8DC3003F00103002B05D07B68DA
:102670001B6C43F004027B681A64D7F8E43003F063
:102680000803002B11D0D7F8E03003F02003002B13
:1026900005D1D7F8DC3003F00103002B05D07B68AF
:1026A0001B6C43F008027B681A647B681B6C002B70
:1026B00000F0ED81D7F8E43003F02003002B08D0C0
:1026C000D7F8E03003F02003002B02D0786800F048
:1026D00092FB7B681B685B6903F04003402B0CBFD7
:1026E00001230023DBB2C7F8D4307B681B6C03F0F6
:1026F0000803002B03D1D7F8D430002B4FD07868D3
:1027000000F09AFA7B681B685B6903F04003402B7A
:1027100041D17B681B681433C7F89C30D7F89C30D4
:1027200053E8003FC7F89830D7F8983023F04003BB
:10273000C7F8D0307B681B681433D7F8D020C7F8AF
:10274000A820C7F8A430D7F8A410D7F8A82041E8EB
:102750000023C7F8A030D7F8A030002BD9D17B6870
:102760009B6B002B13D07B689B6B7D4A1A657B6843
:102770009B6B1846FEF790FA0346002B16D07B6839
:102780009B6B1B6D7A68926B104698470EE07868D9
:1027900000F090F90AE0786800F08CF906E07868BB
:1027A00000F088F97B6800221A6470E100BF6EE1D6
:1027B0007B681B6B012B40F04A81D7F8E43003F0B3
:1027C0001003002B00F04381D7F8E03003F0100332
:1027D000002B00F03C810023BB607B681B681B68FA
:1027E000BB607B681B685B68BB60BB687B681B6801
:1027F0005B6903F04003402B40F0B4807B689B6B27
:102800001B685B68A7F8BE30B7F8BE30002B00F03D
:1028100040817B689B8DB7F8BE209A4280F0398159
:102820007B68B7F8BE20DA857B689B6BDB69B3F504
:10283000807F00F088807B681B680C33C7F8883085
:10284000D7F8883053E8003FC7F88430D7F8843091
:1028500023F48073C7F8B8307B681B680C33D7F853
:10286000B820C7F89420C7F89030D7F89010D7F860
:10287000942041E80023C7F88C30D7F88C30002B27
:10288000D9D17B681B6814337B677B6F53E8003FAB
:102890003B673B6F23F00103C7F8B4307B681B68CC
:1028A0001433D7F8B420C7F88020FB67F96FD7F846
:1028B000802041E80023BB67BB6F002BE1D17B6820
:1028C0001B6814333B663B6E53E8003FFB65FB6DB2
:1028D00023F04003C7F8B0307B681B681433D7F887
:1028E000B020FA66BB66B96EFA6E41E800237B66DB
:1028F0007B6E002BE3D17B68202283F83E207B682F
:1029000000221A637B681B680C33FB64FB6C53E882
:10291000003FBB64BB6C23F01003C7F8AC307B688E
:102920001B680C33D7F8AC20BA657B65796DBA6D3E
:1029300041E800233B653B6D002BE3D17B689B6B3B
:102940001846FEF739F97B689A8D7B68DB8D9BB260
:10295000D31A9BB21946786800F0B6F899E000BF28
:10296000FF2C00087B689A8D7B68DB8D9BB2D31AA5
:10297000A7F8CE307B68DB8D9BB2002B00F08B80FC
:10298000B7F8CE30002B00F086807B681B680C33D4
:10299000BB63BB6B53E8003F7B637B6B23F490739B
:1029A000C7F8C8307B681B680C33D7F8C8207A6436
:1029B0003B64396C7A6C41E80023FB63FB6B002BB2
:1029C000E3D17B681B6814337B627B6A53E8003F6A
:1029D0003B623B6A23F00103C7F8C4307B681B6885
:1029E0001433D7F8C4203A63FB62F96A3A6B41E8C2
:1029F0000023BB62BB6A002BE3D17B68202283F8F3
:102A00003E207B6800221A637B681B680C333B61A5
:102A10003B6953E8003FFB60FB6823F01003C7F8F5
:102A2000C0307B681B680C33D7F8C020FA61BB61EB
:102A3000B969FA6941E800237B617B69002BE3D126
:102A4000B7F8CE301946786800F03EF823E0D7F8A2
:102A5000E43003F08003002B09D0D7F8E03003F016
:102A60008003002B03D0786800F05DF914E0D7F8FC
:102A7000E43003F04003002B0ED0D7F8E03003F031
:102A80004003002B08D0786800F09DF904E000BFF7
:102A900002E000BF00E000BFE837BD4680BD00BFD8
:102AA00080B483B000AF786000BF0C37BD465DF8DE
:102AB000047B704780B483B000AF786000BF0C37F0
:102AC000BD465DF8047B704780B483B000AF78608A
:102AD0000B467B8000BF0C37BD465DF8047B70471A
:102AE00080B590B000AFF860B9603B601346FB71F1
:102AF00050E0BB6CB3F1FF3F4CD0BB6C002B07D058
:102B0000FDF76CFF02463B68D31ABA6C9A4241D279
:102B1000FB681B680C33BB62BB6A53E8003F7B62F7
:102B20007B6A23F4D073FB63FB681B680C33FA6B7E
:102B30007A633B63396B7A6B41E80023FB62FB6A83
:102B4000002BE5D1FB681B6814337B617B6953E87C
:102B5000003F3B613B6923F00103BB63FB681B68DB
:102B60001433BA6B3A62FB61F9693A6A41E80023AF
:102B7000BB61BB69002BE5D1FB68202283F83D20B7
:102B8000FB68202283F83E20FB68002283F83C206B
:102B900003230FE0FB681B681A68BB681340BA6820
:102BA0009A420CBF01230023DBB21A46FB799A42FA
:102BB0009FD0002318464037BD4680BD80B485B005
:102BC00000AFF860B9601346FB80FB68BA689A6290
:102BD000FB68FA889A85FB68FA88DA85FB68002228
:102BE0001A64FB68222283F83E20FB68002283F8E7
:102BF0003C20FB681B69002B07D0FB681B68DA6868
:102C0000FB681B6842F48072DA60FB681B685A69D3
:102C1000FB681B6842F001025A61FB681B68DA68B6
:102C2000FB681B6842F02002DA6000231846143764
:102C3000BD465DF8047B704780B495B000AF786006
:102C40007B681B680C337B637B6B53E8003F3B6303
:102C50003B6B23F49073FB647B681B680C33FA6C4A
:102C60003A64FB63F96B3A6C41E80023BB63BB6BCE
:102C7000002BE5D17B681B6814333B623B6A53E849
:102C8000003FFB61FB6923F00103BB647B681B68A9
:102C90001433BA6CFA62BB62B96AFA6A41E800237B
:102CA0007B627B6A002BE5D17B681B6B012B19D102
:102CB0007B681B680C33FB60FB6853E8003FBB601C
:102CC000BB6823F010037B647B681B680C337A6C51
:102CD000BA617B617969BA6941E800233B613B696C
:102CE000002BE5D17B68202283F83E207B68002200
:102CF0001A6300BF5437BD465DF8047B704780B54A
:102D000084B000AF78607B689B6BFB60FB6800223F
:102D1000DA85FB680022DA84F868FFF7CBFE00BF93
:102D20001037BD4680BD80B485B000AF78607B6849
:102D300093F83D30DBB2212B3ED17B689B68B3F525
:102D4000805F14D17B681B69002B10D17B681B6AE4
:102D5000FB60FB681B881A467B681B68C2F308028D
:102D60005A607B681B6A9A1C7B681A6208E07B6861
:102D70001B6A591C7A6811621A787B681B685A6052
:102D80007B68DB8C9BB2013B9BB27A681946D1848D
:102D9000002B0FD17B681B68DA687B681B6822F008
:102DA0008002DA607B681B68DA687B681B6842F027
:102DB0004002DA60002300E0022318461437BD46C3
:102DC0005DF8047B704780B582B000AF78607B68A7
:102DD0001B68DA687B681B6822F04002DA607B6857
:102DE000202283F83D207868FFF75AFE002318461A
:102DF0000837BD4680BD80B58CB000AF78607B6879
:102E000093F83E30DBB2222B40F0AB807B689B68AE
:102E1000B3F5805F17D17B681B69002B13D10023AA
:102E2000FB627B689B6ABB627B681B685B689BB2CA
:102E3000C3F308039AB2BB6A1A807B689B6A9A1C28
:102E40007B689A6226E07B689B6AFB620023BB6218
:102E50007B689B68B3F5805F07D07B689B68002B1D
:102E60000AD17B681B69002B06D17B681B685B68F5
:102E7000DAB2FB6A1A7008E07B681B685B68DBB239
:102E800003F07F03DAB2FB6A1A707B689B6A5A1CF4
:102E90007B689A627B68DB8D9BB2013B9BB27A6850
:102EA0001946D185002B5AD17B681B68DA687B688C
:102EB0001B6822F02002DA607B681B68DA687B6896
:102EC0001B6822F48072DA607B681B685A697B6831
:102ED0001B6822F001025A617B68202283F83E20A1
:102EE0007B681B6B012B35D17B6800221A637B68E2
:102EF0001B680C337B617B6953E8003F3B613B6996
:102F000023F010037B627B681B680C337A6A3A6299
:102F1000FB61F9693A6A41E80023BB61BB69002B98
:102F2000E5D17B681B681B6803F01003102B0AD1E6
:102F30000023FB607B681B681B68FB607B681B6869
:102F40005B68FB60FB687B689B8D19467868FFF7C0
:102F5000BBFD02E07868FDF7E5FC002302E00023FA
:102F600000E0022318463037BD4680BD2DE9B04F42
:102F7000C0B000AFC7F8F400D7F8F4301B681B6985
:102F800023F44050D7F8F430D968D7F8F4301A68F1
:102F900040EA01031361D7F8F4309A68D7F8F430A7
:102FA0001B691A43D7F8F4305B691A43D7F8F43039
:102FB000DB691343C7F8F830D7F8F4301B68DB68D7
:102FC00023F4164121F00C01D7F8F4301A68D7F831
:102FD000F8300B43D360D7F8F4301B685B6923F4F7
:102FE0004070D7F8F4309969D7F8F4301A6840EA9D
:102FF00001035361D7F8F4301A688F4B9A4205D019
:10300000D7F8F4301A688D4B9A4204D1FEF7C0FE0F
:10301000C7F8FC0003E0FEF7A7FEC7F8FC00D7F8EE
:10302000F430DB69B3F5004F40F00C81D7F8FC3089
:103030000022C7F8E830C7F8EC20D7E93A45224625
:103040002B469118B9655B41FB65D7E916232146EC
:1030500012EB0108294643EB01094FF000024FF043
:1030600000034FEAC90343EA58734FEAC802904687
:103070009946234618EB0303C7F8E0302B4649EB8B
:103080000303C7F8E430D7F8F4305B680022C7F8D0
:10309000D830C7F8DC20D7E936120B46DB183B6581
:1030A000134642EB03037B65D7E91423D7E93801C4
:1030B000FDF7F6F802460B46614BA3FB02235B09C2
:1030C0001C01D7F8FC300022C7F8D030C7F8D42054
:1030D000D7E9348942464B469118B9645B41FB6499
:1030E000D7E91223414612EB010A494643EB010B93
:1030F0004FF000024FF000034FEACB0343EA5A734C
:103100004FEACA0292469B4643461AEB0303C7F8AE
:10311000C8304B464BEB0303C7F8CC30D7F8F4303C
:103120005B680022C7F8C030C7F8C420D7E9301266
:103130000B46DB183B64134642EB03037B64D7E981
:103140001023D7E93201FDF7ABF802460B461146D2
:103150003B4BA3FB01235B09642202FB03F3CB1A65
:10316000DB0003F13202364BA3FB02235B095B0059
:1031700003F4F8731C44D7F8FC300022C7F8B830C9
:10318000C7F8BC20D7E92E8942464B469118B9634F
:103190005B41FB63D7E90E23414651183963494629
:1031A0004B417B634FF000024FF00003D7E90CABBB
:1031B0005946CB00514643EA51735146CA00104666
:1031C0001946034642469B18C7F8B0304B460A469C
:1031D00042EB0303C7F8B430D7F8F4305B68002241
:1031E000C7F8A830C7F8AC20D7E92A120B46DB187D
:1031F000BB62134642EB0303FB62D7E90A23D7E91C
:103200002C01FDF74DF802460B460D4BA3FB0213B4
:103210005B09642101FB03F3D31ADB003233084A54
:10322000A2FB03235B0903F00702D7F8F4301B6805
:1032300022449A6005E100BF0010014000140140E3
:103240001F85EB51D7F8FC300022C7F8A030C7F833
:10325000A420D7E9288942464B46911839625B4140
:103260007B62D7E9082341465418494643EB0105E0
:103270004FF000024FF00003EB0043EA5473E2000A
:1032800014461D464346E318C7F898304B4645EBB5
:103290000303C7F89C30D7F8F4305B680022C7F806
:1032A0009030C7F894204FF000024FF00003D7E9A8
:1032B000244529468B00214643EA917321468A0022
:1032C000D7E92601FCF7ECFF02460B46604BA3FB57
:1032D00002235B091C01D7F8FC300022C7F88830B4
:1032E000C7F88C20D7E9228942464B469118B9612C
:1032F0005B41FB61D7E906234146511839614946D4
:103300004B417B614FF000024FF00003D7E904AB63
:103310005946CB00514643EA51735146CA00104604
:103320001946034642469B18C7F880304B460A466A
:1033300042EB0303C7F88430D7F8F4305B6800220F
:10334000BB67FA674FF000024FF00003D7E91E8910
:1033500049468B00414643EA917341468A00D7E9CA
:103360002001FCF79DFF02460B46394BA3FB0213DD
:103370005B09642101FB03F3D31A1B013233344A86
:10338000A2FB03235B0903F0F0031C44D7F8FC30D5
:1033900000223B677A67D7E91C8942464B46911861
:1033A000B9605B41FB60D7E902234146511839609F
:1033B00049464B417B604FF000024FF00003D7E9D4
:1033C00000AB5946CB00514643EA51735146CA00FF
:1033D00010461946034642469B18BB664B460A46B2
:1033E00042EB0303FB66D7F8F4305B6800223B66D0
:1033F0007A664FF000024FF00003D7E9188949467A
:103400008B00414643EA917341468A00D7E91A018D
:10341000FCF746FF02460B460D4BA3FB02135B096C
:10342000642101FB03F3D31A1B013233084AA2FBC8
:1034300003235B0903F00F02D7F8F4301B68224422
:103440009A6000BF07F58077BD46BDE8B08F00BF2A
:103450001F85EB5180B483B000AF78607B6803F1C7
:1034600008027B685A607B684FF0FF329A607B6885
:1034700003F108027B68DA607B6803F108027B686D
:103480001A617B6800221A6000BF0C37BD465DF8E8
:10349000047B704780B483B000AF78607B68002203
:1034A0001A6100BF0C37BD465DF8047B704780B4DD
:1034B00085B000AF786039603B681B68BB60BB6853
:1034C000B3F1FF3F03D17B681B69FB600CE07B68B5
:1034D0000833FB6002E0FB685B68FB60FB685B68CD
:1034E0001B68BA689A42F6D2FB685A683B685A6011
:1034F0003B685B683A689A603B68FA689A60FB6868
:103500003A685A603B687A681A617B681B685A1C83
:103510007B681A6000BF1437BD465DF8047B7047B6
:1035200080B485B000AF78607B681B69FB607B6806
:103530005B687A6892689A607B689B687A68526870
:103540005A60FB685B687A689A4203D17B689A6824
:10355000FB685A607B6800221A61FB681B685A1E70
:10356000FB681A60FB681B6818461437BD465DF897
:10357000047B704780B586B000AF78603960012366
:103580007B617B683B613B69002B0AD14FF05003A4
:1035900083F31188BFF36F8FBFF34F8FFB6000BFC2
:1035A000FEE73B69002B52D03B69DB6B002B4ED012
:1035B0003B691A6C3B69DB6B0021A3FB0223002BE8
:1035C00000D001210B46002B41D101F07DFD3B696C
:1035D0001A683B69DB6B3969096C01FB03F31A4418
:1035E0003B699A603B6900229A633B691A683B69B0
:1035F0005A603B691A683B69DB6B013B3969096CAE
:1036000001FB03F31A443B69DA603B69FF2283F84C
:1036100044203B69FF2283F845203B68002B09D1F9
:103620003B691B69002B0FD03B691033184600F033
:10363000EDFE09E03B6910331846FFF70BFF3B69CD
:1036400024331846FFF706FF01F06EFD01E000236A
:103650007B617B69002B0AD14FF0500383F3118803
:10366000BFF36F8FBFF34F8FBB6000BFFEE77B6977
:1036700018461837BD4680BD80B58AB002AFF860E5
:10368000B9601346FB710023FB61FB68002B2ED051
:103690000021BA68FB68A3FB0223002B00D00121A4
:1036A0000B46002B23D1FB68BA6802FB03F313F12E
:1036B000510F1CD8FB68BA6802FB03F3BB61BB69FE
:1036C0005033184601F0E2FDF861FB69002B1CD075
:1036D000FB697B617B6950337B61FA79FB690093FD
:1036E00013467A69B968F86800F014F80DE0FB69D0
:1036F000002B0AD14FF0500383F31188BFF36F8F73
:10370000BFF34F8F3B6100BFFEE7FB6918462037D0
:10371000BD4680BD80B584B000AFF860B9607A6006
:10372000FB70BB68002B03D1BB69BA691A6002E069
:10373000BB697A681A60BB69FA68DA63BB69BA6800
:103740001A640121B869FFF715FFBB69FA7883F89D
:103750004C2000BF1037BD4680BD000080B58CB046
:1037600000AFF860B9607A600023FB62FB68BB625F
:10377000BB6A002B0AD14FF0500383F31188BFF3CB
:103780006F8FBFF34F8F3B6200BFFEE7BB68002B1C
:1037900003D1BB6A1B6C002B01D1012300E0002385
:1037A000002B0AD14FF0500383F31188BFF36F8FC2
:1037B000BFF34F8FFB6100BFFEE701F031F8034616
:1037C000002B02D17B68002B01D1012300E00023F4
:1037D000002B0AD14FF0500383F31188BFF36F8F92
:1037E000BFF34F8FBB6100BFFEE701F06DFCBB6A0A
:1037F0009B6B7B627B6A002B14D0B968B86A00F0BF
:1038000081F87B6A5A1EBB6A9A63BB6A1B69002BEC
:1038100004D0BB6A1033184600F0F8FD01F084FCB8
:10382000012369E07B68002B03D101F07DFC0023BC
:1038300062E0FB6A002B06D107F11003184600F086
:10384000BBFE0123FB6201F06FFC00F019FB01F0ED
:103850003BFCBB6A93F844305BB2B3F1FF3F03D14A
:10386000BB6A002283F84420BB6A93F845305BB200
:10387000B3F1FF3F03D1BB6A002283F8452001F07A
:1038800053FC3A1D07F110031146184600F0AAFE3A
:103890000346002B23D1B86A00F0ACF80346002B96
:1038A00017D0BB6A24337A681146184600F044FDED
:1038B000B86A00F04DF800F0F1FA0346002B94D1FD
:1038C0000F4B4FF080521A60BFF34F8FBFF36F8FD3
:1038D0008BE7B86A00F03CF800F0E0FA85E7B86AD8
:1038E00000F036F800F0DAFAB86A00F083F8034620
:1038F000002B3FF47AAF002318463037BD4680BD19
:1039000004ED00E080B582B000AF786039607B687C
:103910001B6C002B18D07B68DA687B681B6C1A4420
:103920007B68DA607B68DA687B689B689A4203D3BD
:103930007B681A687B68DA607B68D9687B681B6C77
:103940001A46386802F008FA00BF0837BD4680BD45
:1039500080B584B000AF786001F0B6FB7B6893F867
:103960004530FB7311E07B685B6A002B12D07B68EB
:103970002433184600F04AFD0346002B01D000F026
:1039800097FEFB7B013BDBB2FB7397F90F30002BFB
:10399000E9DC00E000BF7B68FF2283F8452001F0EE
:1039A000C3FB01F091FB7B6893F84430BB7311E0DB
:1039B0007B681B69002B12D07B681033184600F01F
:1039C00025FD0346002B01D000F072FEBB7B013BBE
:1039D000DBB2BB7397F90E30002BE9DC00E000BFCF
:1039E0007B68FF2283F8442001F09EFB00BF103764
:1039F000BD4680BD80B584B000AF786001F064FB47
:103A00007B689B6B002B02D10123FB6001E000234C
:103A1000FB6001F089FBFB6818461037BD4680BD8E
:103A200080B487B000AF7860396000233B617B6869
:103A3000002B0AD14FF0500383F31188BFF36F8F2F
:103A4000BFF34F8FFB6000BFFEE73B68002B24D025
:103A500000237B611EE0184A7B69DB0013445B682E
:103A60007A689A4205D17B69DB00134A13443B61B3
:103A700013E03B69002B0AD10F4A7B6952F83330BF
:103A8000002B04D17B69DB000B4A13443B617B694B
:103A900001337B617B69072BDDD93B69002B05D0A6
:103AA0003B693A681A603B697A685A6000BF1C3704
:103AB000BD465DF8047B70478001002080B586B06C
:103AC00000AFF860B9607A60FB687B6101F0FCFAD6
:103AD0007B6993F844305BB2B3F1FF3F03D17B695C
:103AE000002283F844207B6993F845305BB2B3F140
:103AF000FF3F03D17B69002283F8452001F014FBCE
:103B00007B699B6B002B06D17B6924337A68B9688B
:103B1000184600F035FC7869FFF71AFF00BF183728
:103B2000BD4680BD80B58CB004AFF860B9603B6025
:103B30001346FB80FB889B00184601F0A7FB7861C9
:103B40007B69002B13D0582001F0A0FBF861FB69C2
:103B5000002B08D058220021F86902F00BF9FB690C
:103B60007A691A6305E0786901F04AFC01E00023F4
:103B7000FB61FB69002B13D0FA8800230393FB69D8
:103B80000293FB6A0193BB6A00933B68B968F868CB
:103B900000F00EF8F86900F099F80123BB6102E02B
:103BA0004FF0FF33BB61BB6918462037BD4680BD6F
:103BB00080B588B000AFF860B9607A603B603B6B5D
:103BC000186B7B689B001A46A52102F0D3F83B6B6B
:103BD0001A6B7B6803F18043013B9B001344BB617C
:103BE000BB6923F00703BB61BB6903F00703002B2C
:103BF0000AD04FF0500383F31188BFF36F8FBFF3E8
:103C00004F8F7B6100BFFEE7BB68002B1ED00023F7
:103C1000FB6112E0BA68FB69134419783A6BFB69DF
:103C2000134434330A461A70BA68FB6913441B788C
:103C3000002B06D0FB690133FB61FB69092BE9D935
:103C400000E000BF3B6B002283F83D20BB6A042BE1
:103C50000AD94FF0500383F31188BFF36F8FBFF37E
:103C60004F8F3B6100BFFEE7BB6A042B01D90423E1
:103C7000BB623B6BBA6ADA623B6BBA6A9A643B6BB3
:103C800004331846FFF706FC3B6B18331846FFF762
:103C900001FC3B6B3A6B1A61BB6AC3F105023B6BDB
:103CA0009A613B6B3A6B5A623A68F968B86901F0FD
:103CB000D9F802463B6B1A60FB6A002B02D0FB6A04
:103CC0003A6B1A6000BF2037BD4680BD80B584B016
:103CD00000AF786001F0F8F93A4B1B680133394ABC
:103CE0001360394B1B68002B09D1374A7B6813607E
:103CF000344B1B68012B10D100F0F8FC0DE0334B66
:103D00001B68002B09D1304B1B68DA6A7B68DB6AC1
:103D10009A4202D82C4A7B6813602D4B1B680133F2
:103D20002B4A13602A4B1A687B681A647B68DB6A2B
:103D300001229A40274B1B681343264A13607B6875
:103D4000DA6A254913469B0013449B000B44043355
:103D50001B68FB607B68FA689A60FB689A687B68FE
:103D6000DA60FB689B687A6804325A607B681A1DC7
:103D7000FB689A607B68DA6A13469B0013449B00D9
:103D8000154A1A447B685A617B68DA6A12491346FD
:103D90009B0013449B000B441B68591C0E481346A0
:103DA0009B0013449B000344196001F0BDF9074BCD
:103DB0001B68002B01D0044B1B6800BF1037BD46A9
:103DC00080BD00BF98020020C0010020A402002096
:103DD000B4020020A0020020C401002080B586B0FB
:103DE00002AF204B019300230093002382221E493F
:103DF0001E48FFF797FEF860FB68012B02D100F028
:103E0000ADFDF860FB68012B16D14FF0500383F332
:103E10001188BFF36F8FBFF34F8FBB6000BF144B90
:103E20004FF0FF321A60134B01221A60124B00222E
:103E30001A6001F0A7F80EE0FB68B3F1FF3F0AD16A
:103E40004FF0500383F31188BFF36F8FBFF34F8F91
:103E50007B6000BFFEE7094B1B6800BF1037BD4603
:103E600080BD00BFBC0200208C6E0008C94600085F
:103E7000B8020020A40200209C02002008000020BC
:103E800080B400AF044B1B680133034A136000BFCA
:103E9000BD465DF8047B7047C002002080B588B045
:103EA00000AF0023FB6100237B616B4B1B68002B81
:103EB0000AD14FF0500383F31188BFF36F8FBFF324
:103EC0004F8F7B6000BFFEE701F0FEF8624B1B687E
:103ED000013B614A1360604B1B68002B40F0B480CB
:103EE0005E4B1B68002B00F0AF808AE05C4BDB6808
:103EF000DB68FB61FB699B6A3B61FB69DB69FA6913
:103F0000126A9A60FB691B6AFA69D2695A603B6956
:103F10005A68FB6918339A4203D1FB691A6A3B69F4
:103F20005A60FB6900229A623B691B685A1E3B6912
:103F30001A60FB695B69FB60FB699B68FA69D26880
:103F40009A60FB69DB68FA6992685A60FB685A6894
:103F5000FB6904339A4203D1FB69DA68FB685A6053
:103F6000FB6900225A61FB681B685A1EFB681A60D5
:103F7000FB69DB6A01229A403A4B1B681343394ABA
:103F80001360FB69DA6A384913469B0013449B00AF
:103F90000B4404331B68BB60FB69BA689A60BB685A
:103FA0009A68FB69DA60BB689B68FA6904325A60F8
:103FB000FB691A1DBB689A60FB69DA6A13469B00AD
:103FC00013449B00284A1A44FB695A61FB69DA6A68
:103FD000254913469B0013449B000B441B68591C46
:103FE000214813469B0013449B0003441960FB695E
:103FF000DA6A1E4B1B68DB6A9A4202D31C4B012211
:104000001A60174B1B68002B7FF470AFFB69002B05
:1040100001D000F0E9FB174B1B68BB61BB69002BAB
:1040200010D000F039F80346002B02D0104B0122CB
:104030001A60BB69013BBB61BB69002BF1D10D4B21
:1040400000221A600A4B1B6801F06EF87B69184663
:104050002037BD4680BD00BFC0020020980200206E
:1040600058020020A0020020C4010020C00100204E
:10407000AC020020A802002080B483B000AF054B42
:104080001B687B607B6818460C37BD465DF8047B77
:10409000704700BF9C02002080B58AB000AF0023AB
:1040A0007B626E4B1B68002B40F0CD806C4B1B6815
:1040B00001333B626A4A3B6A13603B6A002B20D1A2
:1040C000684B1B681B68002B0AD04FF0500383F32A
:1040D0001188BFF36F8FBFF34F8F7B6000BFFEE788
:1040E000604B1B68FB61604B1B685E4A13605E4A55
:1040F000FB6913605D4B1B6801335C4A136000F081
:1041000073FB5B4B1B683A6A9A42C0F0A180554B27
:104110001B681B68002B04D1554B4FF0FF321A600F
:1041200096E0504B1B68DB68DB68BB61BB695B6872
:104130007B613A6A7B699A4203D24D4A7B6913607C
:1041400086E0BB695B693B61BB699B68BA69D26801
:104150009A60BB69DB68BA6992685A603B695A68C1
:10416000BB6904339A4203D1BB69DA683B695A6080
:10417000BB6900225A613B691B685A1E3B691A6081
:10418000BB699B6A002B1ED0BB699B6AFB60BB6945
:10419000DB69BA69126A9A60BB691B6ABA69D2693B
:1041A0005A60FB685A68BB6918339A4203D1BB69ED
:1041B0001A6AFB685A60BB6900229A62FB681B6836
:1041C0005A1EFB681A60BB69DB6A01229A40294BC0
:1041D0001B681343274A1360BB69DA6A26491346F2
:1041E0009B0013449B000B4404331B68BB60BB69FA
:1041F000BA689A60BB689A68BB69DA60BB689B68FA
:10420000BA6904325A60BB691A1DBB689A60BB69FF
:10421000DA6A13469B0013449B00174A1A44BB6991
:104220005A61BB69DA6A144913469B0013449B0028
:104230000B441B68591C104813469B0013449B00F9
:104240000344196063E70D4B1B6801330B4A13608D
:104250007B6A18462837BD4680BD00BFC0020020DB
:104260009C0200205002002054020020B0020020D6
:10427000B8020020A0020020C4010020A8020020F3
:1042800080B487B000AF274B1B68002B03D0264BB0
:1042900001221A603FE0244B00221A60234B1B6866
:1042A000FB60FB68B3FA83F3FB72FB7AC3F11F0375
:1042B0007B611F497A6913469B0013449B000B44A2
:1042C0001B68002B0AD14FF0500383F31188BFF312
:1042D0006F8FBFF34F8F7B6000BFFEE77A69134695
:1042E0009B0013449B00124A13443B613B695B688B
:1042F0005A683B695A603B695A683B6908339A427D
:1043000004D13B695B685A683B695A603B695B68EA
:10431000DB68084A136000BF1C37BD465DF8047BAC
:10432000704700BFC0020020AC020020A0020020A5
:10433000C4010020C001002080B584B000AF7860C7
:1043400039607B68002B0AD14FF0500383F311884A
:10435000BFF36F8FBFF34F8FFB6000BFFEE7074BCC
:104360001B68183319467868FFF7A1F801213868EF
:1043700000F074FA00BF1037BD4680BDC0010020B8
:1043800080B586B000AFF860B9607A60FB68002B3A
:104390000AD14FF0500383F31188BFF36F8FBFF33F
:1043A0004F8F3B6100BFFEE7FB685B687B61164B8C
:1043B0001B687A69DA61144B1B687A6992681A6221
:1043C000114B1A687B699B6818325A600E4B1B6848
:1043D00003F118027B699A600B4B1B68FA689A62BA
:1043E000FB681B685A1CFB681A607B68002B02D0B4
:1043F0004FF0FF33BB607968B86800F02FFA00BF58
:104400001837BD4680BD00BFC001002080B48BB00E
:1044100000AF78607B68DB68DB683B623B6A002B3F
:104420000AD14FF0500383F31188BFF36F8FBFF3AE
:104430004F8FFB6000BFFEE73B6A9B6AFB613B6AF4
:10444000DB693A6A126A9A603B6A1B6A3A6AD26905
:104450005A60FB695A683B6A18339A4203D13B6A37
:104460001A6AFB695A603B6A00229A62FB691B6800
:104470005A1EFB691A604A4B1B68002B5ED13B6ACF
:104480005B697B613B6A9B683A6AD2689A603B6A67
:10449000DB683A6A92685A607B695A683B6A0433FF
:1044A0009A4203D13B6ADA687B695A603B6A002210
:1044B0005A617B691B685A1E7B691A603B6ADB6A1A
:1044C00001229A40374B1B681343364A13603B6AFC
:1044D000DA6A354913469B0013449B000B440433AE
:1044E0001B683B613B6A3A699A603B699A683B6A20
:1044F000DA603B699B683A6A04325A603B6A1A1D6B
:104500003B699A603B6ADA6A13469B0013449B003E
:10451000254A1A443B6A5A613B6ADA6A22491346C1
:104520009B0013449B000B441B68591C1E481346F8
:104530009B0013449B00034419601BE01B4B5B680A
:10454000BB613B6ABA69DA61BB699A683B6A1A6205
:10455000BB699B683A6A18325A603B6A03F11802D9
:10456000BB699A603B6A114A9A62104B1B6801331F
:104570000E4A13603B6ADA6A0D4B1B68DB6A9A428B
:1045800005D901237B620B4B01221A6001E0002355
:104590007B627B6A18462C37BD465DF8047B70470A
:1045A000C0020020A0020020C40100205802002008
:1045B000C0010020AC02002080B483B000AF78605E
:1045C000064B1A687B681A60054B1A687B685A604C
:1045D00000BF0C37BD465DF8047B7047B002002079
:1045E0009C02002080B588B000AF786039607B689D
:1045F000002B0AD14FF0500383F31188BFF36F8F64
:10460000BFF34F8F3B6100BFFEE73B68002B0AD131
:104610004FF0500383F31188BFF36F8FBFF34F8FB9
:10462000FB6000BFFEE700F04FFD1F4B1B68BB6146
:104630007B685B68BA69D31A7B613B681B68B3F11E
:10464000FF3F02D10023FB6126E07B681A68174B0D
:104650001B689A420AD07B685B68BA699A4205D3A4
:104660000123FB613B6800221A6015E03B681B6870
:104670007A699A420BD23B681A687B69D21A3B6806
:104680001A607868FFF798FF0023FB6104E03B683D
:1046900000221A600123FB6100F046FDFB69184609
:1046A0002037BD4680BD00BF9C020020B002002024
:1046B00080B400AF034B01221A6000BFBD465DF815
:1046C000047B7047AC02002080B582B000AF7860F8
:1046D00000F04CF8044B4FF080521A60BFF34F8F3C
:1046E000BFF36F8FF4E700BF04ED00E080B582B048
:1046F00000AF00237B600CE07A6813469B001344F4
:104700009B00124A13441846FEF7A4FE7B6801334F
:104710007B607B68042BEFD90D48FEF79BFE0D48AC
:10472000FEF798FE0C48FEF795FE0C48FEF792FE49
:104730000B48FEF78FFE0B4B054A1A600A4B054AE1
:104740001A6000BF0837BD4680BD00BFC40100200D
:10475000280200203C020020580200206C020020A9
:1047600084020020500200205402002080B582B054
:1047700000AF19E000F0A8FC104BDB68DB687B6041
:104780007B6804331846FEF7CBFE0D4B1B68013BDC
:104790000B4A13600B4B1B68013B0A4A136000F085
:1047A000C3FC786800F010F8064B1B68002BE1D1C1
:1047B00000BF00BF0837BD4680BD00BF6C020020AF
:1047C000980200208002002080B582B000AF78609F
:1047D0007B681B6B184600F013FE786800F010FE33
:1047E00000BF0837BD4680BD80B400AF0A4B1B68D0
:1047F0001B68002B04D1094B4FF0FF321A6005E013
:10480000054B1B68DB681B68044A136000BFBD468C
:104810005DF8047B704700BF50020020B802002002
:1048200080B483B000AF0B4B1B68002B02D1012377
:104830007B6008E0084B1B68002B02D102237B60E1
:1048400001E000237B607B6818460C37BD465DF8AD
:10485000047B7047A4020020C002002080B586B00F
:1048600000AF78603960364B1B687B61354B1B6845
:1048700004331846FEF754FE0346002B0BD1314B90
:104880001B68DB6A012202FA03F3DA432E4B1B6832
:1048900013402D4A13607B68B3F1FF3F24D13B687E
:1048A000002B21D0294B5B683B61264B1B683A6982
:1048B0009A60244B1B683A699268DA60214B1A6847
:1048C0003B699B6804325A601E4B1B681A1D3B698A
:1048D0009A601C4B1B681D4A5A611C4B1B680133B4
:1048E0001A4A136000BF26E07A697B681344FB60B4
:1048F000144B1B68FA685A60FA687B699A4209D2BD
:10490000134B1A680F4B1B68043319461046FEF709
:10491000CEFD10E00F4B1A680A4B1B680433194692
:104920001046FEF7C4FD0C4B1B68FA689A4202D28F
:10493000094AFB68136000BF1837BD4680BD00BF41
:104940009C020020C0010020A00200208402002060
:104950005402002050020020B802002080B584B02C
:1049600002AF00237B6000F047FA114B1B68002B5D
:104970000BD0104B01930223009300234FF482725B
:104980000D490E48FFF7CEF878607B68002B0AD1FE
:104990004FF0500383F31188BFF36F8FBFF34F8F36
:1049A0003B6000BFFEE77B6818460837BD4680BD08
:1049B000F4020020F8020020946E0008654A000806
:1049C00080B584B000AFF860B9607A6008E0FB6839
:1049D0009B69BA681344BB60FB681B6AF868984718
:1049E000FB689A69BB68D118BB687A68F86800F000
:1049F000DDF80346002BEAD100BF00BF1037BD46EB
:104A000080BD000080B584B000AF78603960144B81
:104A10001B68DB68DB68FB60FB6804331846FEF745
:104A20007FFDFB6893F8283003F00403002B05D0CA
:104A30003A687968F868FFF7C3FF08E0FB6893F805
:104A4000283023F00103DAB2FB6883F82820FB68E2
:104A50001B6AF868984700BF1037BD4680BD00BF8D
:104A6000EC02002080B584B000AF786007F1080345
:104A7000184600F057F8F860BB681946F86800F06F
:104A800003F800F0D5F8F1E780B584B000AF7860A6
:104A90003960FFF7F5F907F10803184600F066F8EA
:104AA000F860BB68002B30D13B68002B0AD17A68D4
:104AB000FB689A4206D8FFF7F1F9F9687868FFF7C2
:104AC000A1FF24E03B68002B08D0134B1B681B6838
:104AD000002B01D1012300E000233B600F4B18683D
:104AE0007A68FB68D31A3A681946FEF7E7FFFFF7C2
:104AF000D5F90346002B0AD1094B4FF080521A60BA
:104B0000BFF34F8FBFF36F8F01E0FFF7C7F900BF0F
:104B10001037BD4680BD00BFF0020020F402002027
:104B200004ED00E080B485B000AF78600E4B1B68E8
:104B30001B68002B01D1012200E000227B681A6073
:104B40007B681B68002B05D1074B1B68DB681B6863
:104B5000FB6001E00023FB60FB6818461437BD468C
:104B60005DF8047B704700BFEC02002080B584B084
:104B700000AF7860FFF780FAF8600B4B1B68FA68AB
:104B80009A4205D200F012F97B6801221A6002E015
:104B90007B6800221A60044AFB681360FB681846B1
:104BA0001037BD4680BD00BFFC02002080B586B036
:104BB00000AFF860B9607A603B6000237B61FB68FE
:104BC000BA685A60FB68FA681A61BA687B689A42E8
:104BD00012D87A683B68D21AFB689B699A4202D362
:104BE00001237B611BE0104B1A68FB6804331946F4
:104BF0001046FEF75CFC12E07A683B689A4206D2E7
:104C0000BA683B689A4202D301237B6107E0074BF5
:104C10001A68FB68043319461046FEF748FC7B69A6
:104C200018461837BD4680BDF0020020EC02002077
:104C300080B588B000AFA6E0BB68002BC0F2A280B0
:104C40003B69FB61FB695B69002B04D0FB690433A2
:104C50001846FEF765FC3B1D1846FFF787FFB86155
:104C6000BB68013B082B00F28E8001A252F823F0B2
:104C7000954C0008954C0008FD4C0008114D0008AB
:104C80005B4D0008954C0008954C0008FD4C000851
:104C9000114D0008FB6993F8283043F00103DAB2A4
:104CA000FB6983F82820FA68FB699B69D118FB68C7
:104CB000BA69F869FFF77AFF0346002B63D0FB69F6
:104CC00093F8283003F00403002B09D0FA68FB693D
:104CD0009B691344BA691946F869FFF771FE08E049
:104CE000FB6993F8283023F00103DAB2FB6983F8FB
:104CF0002820FB691B6AF869984744E0FB6993F830
:104D0000283023F00103DAB2FB6983F828203AE067
:104D1000FB6993F8283043F00103DAB2FB6983F8AA
:104D20002820FA68FB699A61FB699B69002B0AD10C
:104D30004FF0500383F31188BFF36F8FBFF34F8F92
:104D40007B6100BFFEE7FB699A69BB69D118BB694B
:104D5000BA69F869FFF72AFF15E0FB6993F8283074
:104D600003F00203002B03D1F86900F049FB0AE0CD
:104D7000FB6993F8283023F00103DAB2FB6983F86A
:104D8000282000E000BF084B1B6807F10801002243
:104D90001846FEF7E3FC0346002B7FF44DAF00BF3F
:104DA00000BF2037BD4680BDF402002080B582B030
:104DB00000AF09E00E4B1B68DB681B683B604FF0DF
:104DC000FF313868FFF71EFE094B1B681B68002B7C
:104DD000F0D1074B1B687B60064B1B68044A1360CD
:104DE000044A7B68136000BF0837BD4680BD00BF22
:104DF000EC020020F002002080B500AF00F064F962
:104E0000124B1B68002B1DD11148FEF723FB1148E4
:104E1000FEF720FB104B0E4A1A60104B0D4A1A6029
:104E200000220C210A20FEF727FC0346074A1360E4
:104E3000064B1B68002B05D0044B1B68084918461D
:104E4000FEF7EEFD00F070F900BF80BDF402002017
:104E5000C4020020D8020020EC020020F002002052
:104E60009C6E000880B485B000AFF860B9607A60CD
:104E7000FB68043BFB60FB684FF080721A60FB68C4
:104E8000043BFB60BB6823F00102FB681A60FB680F
:104E9000043BFB600C4AFB681A60FB68143BFB6038
:104EA0007A68FB681A60FB68043BFB60FB686FF084
:104EB00002021A60FB68203BFB60FB68184614374F
:104EC000BD465DF8047B7047CD4E000880B485B0C8
:104ED00000AF00237B60124B1B68B3F1FF3F0AD089
:104EE0004FF0500383F31188BFF36F8FBFF34F8FE1
:104EF000FB6000BFFEE74FF0500383F31188BFF360
:104F00006F8FBFF34F8FBB6000BF00BF7B68002B6C
:104F1000FCD000BF00BF1437BD465DF8047B70476E
:104F20000C00002000000000000000000000000055
:104F3000074B19680868B0E8F04F80F30988BFF3A1
:104F40006F8F4FF0000080F311887047AFF300803F
:104F5000C001002000BF00BF08480068006880F35F
:104F600008884FF0000080F3148862B661B6BFF382
:104F70004F8FBFF36F8F00DF00BF000008ED00E030
:104F800000BF00BF80B586B000AF464B1B68464AE5
:104F900093420AD14FF0500383F31188BFF36F8F10
:104FA000BFF34F8F3B6100BFFEE73E4B1B683F4A9C
:104FB00093420AD14FF0500383F31188BFF36F8FF0
:104FC000BFF34F8FFB6000BFFEE7394B7B617B690E
:104FD0001B78DBB27B607B69FF221A707B691B78D0
:104FE000DBB2FB70FB78DBB203F05003DAB2314B7B
:104FF0001A70314B07221A6009E02F4B1B68013BE6
:105000002D4A1360FB78DBB25B00DBB2FB70FB78F0
:10501000DBB203F08003802BEFD0274B1B68C3F17A
:105020000703042B0AD04FF0500383F31188BFF31A
:105030006F8FBFF34F8FBB6000BFFEE71E4B1B6837
:105040001B021D4A13601C4B1B6803F4E0631A4AE1
:1050500013607B68DAB27B691A70184B1B68174AB9
:1050600043F470031360154B1B68144A43F07043FC
:10507000136000F0DBF8124B00221A6000F0FAF81F
:10508000104B1B680F4A43F040431360FFF764FF67
:10509000FFF7F6F8FFF71AFF002318461837BD464A
:1050A00080BD00BF00ED00E071C20F4170C20F4132
:1050B00000E400E0000300200403002020ED00E0F5
:1050C0000C00002034EF00E080B483B000AF4FF05C
:1050D000500383F31188BFF36F8FBFF34F8F7B6053
:1050E00000BF0F4B1B6801330D4A13600C4B1B684C
:1050F000012B0FD10B4B1B68DBB2002B0AD04FF0FA
:10510000500383F31188BFF36F8FBFF34F8F3B6062
:1051100000BFFEE700BF0C37BD465DF8047B70475B
:105120000C00002004ED00E080B483B000AF124B0F
:105130001B68002B0AD14FF0500383F31188BFF393
:105140006F8FBFF34F8F7B6000BFFEE70A4B1B687A
:10515000013B094A1360084B1B68002B05D1002353
:105160003B603B6883F3118800BF00BF0C37BD462E
:105170005DF8047B704700BF0C00002000000000B9
:10518000EFF30980BFF36F8F154B1A681EF0100FF5
:1051900008BF20ED108A20E9F04F10602DE90900CA
:1051A0004FF0500080F31188BFF34F8FBFF36F8F24
:1051B000FFF766F84FF0000080F3118809BC19680A
:1051C0000868B0E8F04F1EF0100F08BFB0EC108A6E
:1051D00080F30988BFF36F8F704700BFAFF3008083
:1051E000C001002000BF00BF80B582B000AF4FF00B
:1051F000500383F31188BFF36F8FBFF34F8F7B6032
:1052000000BFFEF749FF0346002B03D0064B4FF0CB
:1052100080521A6000233B603B6883F3118800BF13
:1052200000BF0837BD4680BD04ED00E080B400AF8C
:105230000B4B00221A600B4B00221A600A4B1B68B2
:105240000A4AA2FB03239B09094A013B1360044B52
:1052500007221A6000BFBD465DF8047B704700BF9F
:1052600010E000E018E000E010000020D34D6210D4
:1052700014E000E0DFF80C00016841F47001016007
:105280007047000088ED00E000BF00BF80B58AB025
:1052900000AF78600023FB61FEF7F2FD534B1B6803
:1052A000002B01D100F008F97B68002B12D00822F6
:1052B0007B6803F00703D31A0833BB61BB69DB4388
:1052C0007A689A4204D87A68BB6913447B6001E02B
:1052D00000237B607B68002B70DB7B68002B6DD02C
:1052E000434B1B687A689A4268D8424B3B62414BF9
:1052F0001B687B6204E07B6A3B627B6A1B687B62A3
:105300007B6A5B687A689A4203D97B6A1B68002BC8
:10531000F1D1364B1B687A6A9A424FD03B6A1B68C0
:1053200008221344FB617B6A1A683B6A1A607B6A35
:105330005A687B68D21A08235B009A421FD97A6A9E
:105340007B6813447B617B6903F00703002B0AD061
:105350004FF0500383F31188BFF36F8FBFF34F8F6C
:105360003B6100BFFEE77B6A5A687B68D21A7B69A3
:105370005A607B6A7A685A60786900F0F9F81C4BC9
:105380001A687B6A5B68D31A194A1360184B1A684B
:10539000194B1B689A4203D2154B1B68164A1360BF
:1053A0007B6A5B6843F000427B6A5A607B6A00223A
:1053B0001A60124B1B680133104A1360FEF76EFD32
:1053C000FB6903F00703002B0AD04FF0500383F36F
:1053D0001188BFF36F8FBFF34F8FFB6000BFFEE7F5
:1053E000FB6918462837BD4680BD00BF102F01203D
:1053F000142F0120082F0120182F01201C2F01201D
:1054000080B586B000AF78607B687B617B68002BDD
:1054100049D008235B427A6913447B617B693B6115
:105420003B695B68002B0ADB4FF0500383F3118864
:10543000BFF36F8FBFF34F8FFB6000BFFEE73B6989
:105440001B68002B0AD04FF0500383F31188BFF381
:105450006F8FBFF34F8FBB6000BFFEE73B695B6898
:10546000DB0F03F00103DBB2002B1CD03B691B6890
:10547000002B18D13B695B6823F000423B695A60FE
:10548000FEF7FEFC3B695A68094B1B681344084A47
:105490001360386900F06CF8064B1B680133054A4D
:1054A0001360FEF7FBFC00BF1837BD4680BD00BF90
:1054B000142F0120202F012080B485B000AF4FF4BD
:1054C0009633BB60254BFB60FB6803F00703002BA2
:1054D0000CD0FB680733FB60FB6823F00703FB601D
:1054E000BA68FB68D31A1D4A1344BB60FB687B6033
:1054F0001B4A7B6813601A4B00225A607B68BA68AB
:105500001344FB600822FB689B1AFB60FB6823F0D6
:105510000703FB60FB68134A1360124B1B680022F1
:105520005A60104B1B6800221A607B683B603B6826
:10553000FA68D21A3B685A600A4B1A683B681A60CC
:105540003B685B68084A13603B685B68074A136006
:1055500000BF1437BD465DF8047B70470803002088
:10556000082F0120102F0120182F0120142F0120B7
:1055700080B485B000AF7860284BFB6002E0FB6828
:105580001B68FB60FB681B687A689A42F7D8FB6867
:10559000BB60FB685B68BA6813447A689A4208D1BA
:1055A000FB685A687B685B681A44FB685A60FB6852
:1055B0007B607B68BB607B685B68BA681A44FB6889
:1055C0001B689A4218D1FB681A68154B1B689A42EF
:1055D0000DD07B685A68FB681B685B681A447B685F
:1055E0005A60FB681B681A687B681A6008E00C4BFD
:1055F0001A687B681A6003E0FB681A687B681A60A7
:10560000FA687B689A4202D0FB687A681A6000BF29
:105610001437BD465DF8047B704700BF082F01209A
:10562000102F01200D48854600F060FB0C480D4905
:105630000D4A002302E0D458C4500433C4188C42ED
:10564000F9D30A4A0A4C002301E013600432A24253
:10565000FBD300F05DFB00F00FF8FEE70000032035
:105660000000002078000020A46F000878000020CF
:10567000842F0120FEE7000080B500AFFBF778F92A
:1056800000F022F80D48FBF7B9F8FBF7FDF8FBF73F
:1056900075F84FF480410A48FAF784FF4FF400513F
:1056A0000748FAF77FFFFBF7C5F80648FBF750F904
:1056B00000F080F80023184680BD00BF00100040B5
:1056C00000180240242F012080B594B000AF07F1EC
:1056D000200330220021184600F04CFB07F10C0398
:1056E00000221A605A609A60DA601A610023BB6077
:1056F0002B4B1B6C2A4A43F080531364284B1B6CC2
:1057000003F08053BB60BB6800237B60254B1B68A4
:10571000244A43F440431360224B1B6803F4404384
:105720007B607B6801233B624FF480337B62022302
:10573000BB634FF48003FB6304233B6450237B640F
:105740000223BB640723FB6407F120031846FBF721
:105750009BFE0346002B01D000F026F8FBF744FE29
:105760000346002B01D000F01FF80F23FB6002233B
:105770003B6100237B614FF4A053BB614FF4805326
:10578000FB6107F10C0305211846FCF7F5F8034609
:10579000002B01D000F008F800BF5037BD4680BD97
:1057A000003802400070004080B400AF72B600BF05
:1057B000FEE7000080B588B002AF07F1080301934F
:1057C00002230093194BC82219491A48FEF7AAF977
:1057D00078617B69012B0AD04FF0500383F3118865
:1057E000BFF36F8FBFF34F8F3B6100BFFEE73B1DE1
:1057F000019302230093104BC82210491048FEF772
:1058000091F978617B69012B0AD04FF0500383F343
:105810001188BFF36F8FBFF34F8FFB6000BFFEE7B0
:10582000FEF7DCFA00BF1837BD4680BDA46E000845
:10583000B86E000845580008C06E0008D46E000815
:105840008958000880B584B000AF78600023FB6001
:10585000FB685A1CFA601A4679680848FBF73EF85C
:105860004FF400510648FAF779FF064B4FF080528B
:105870001A60BFF34F8FBFF36F8FE9E7DC6E00084C
:105880000018024004ED00E080B584B000AF7860FD
:105890000023FB60FB685A1CFA601A4679680848C6
:1058A000FBF71CF84FF480410648FAF757FF064B08
:1058B0004FF080521A60BFF34F8FBFF36F8FE9E74D
:1058C000DC6E00080018024004ED00E080B582B0F4
:1058D00000AF00237B60194B5B6C184A43F4804394
:1058E0005364164B5B6C03F480437B607B6800233E
:1058F0003B60124B1B6C114A43F0805313640F4BF7
:105900001B6C03F080533B603B680320FBF71FF9DF
:10591000002200216FF00B00FBF724F90022002188
:105920006FF00A00FBF71EF9002200216FF009005A
:10593000FBF718F900BF0837BD4680BD00380240AC
:1059400080B584B000AF78600023FB600B4B1B6C0C
:105950000A4A43F010031364084B1B6C03F0100356
:10596000FB60FB683620FBF719F900220F21362077
:10597000FBF7F8F800BF1037BD4680BD0038024085
:1059800080B58AB000AF786007F1140300221A6076
:105990005A609A60DA601A617B681B681D4A9342FC
:1059A00034D100233B611C4B5B6C1B4A43F010035A
:1059B0005364194B5B6C03F010033B613B6900239C
:1059C000FB60154B1B6B144A43F001031363124B2E
:1059D0001B6B03F00103FB60FB684FF4C0637B614A
:1059E0000223BB610023FB6103233B6207237B622D
:1059F00007F1140319460948FBF770F9002200214A
:105A00002520FBF7AFF82520FBF7C8F800BF2837A3
:105A1000BD4680BD00100140003802400000024039
:105A200080B58AB000AF786007F1140300221A60D5
:105A30005A609A60DA601A617B681B68194A93425F
:105A40002BD100233B61184B1B6B174A43F0020319
:105A50001363154B1B6B03F002033B613B69C023CF
:105A60007B611223BB610023FB6103233B620423A0
:105A70007B6207F1140319460C48FBF72FF900234A
:105A8000FB60094B1B6C084A43F400131364064B7C
:105A90001B6C03F40013FB60FB6800BF2837BD4696
:105AA00080BD00BF005400400038024000040240A6
:105AB00080B58EB000AF78600023FB620023BB622C
:105AC0000023FB60334B1B6C324A43F0200313640A
:105AD000304B1B6C03F02003FB60FB6807F11002E6
