:020000040800F2
:1000000000000320C51C0008611F0008671F0008CE
:100010006D1F0008731F0008791F00080000000012
:100020000000000000000000000000007F1F00082A
:100030008D1F0008000000009B1F0008A91F00087A
:10004000151D0008151D0008151D0008151D0008C8
:10005000151D0008151D0008151D0008151D0008B8
:10006000151D0008151D0008151D0008151D0008A8
:10007000151D0008151D0008151D0008151D000898
:10008000151D0008151D0008151D0008151D000888
:10009000151D0008151D0008151D0008151D000878
:1000A000151D0008151D0008151D0008151D000868
:1000B000151D0008151D0008151D0008151D000858
:1000C000151D0008151D0008151D0008151D000848
:1000D000151D0008151D0008151D0008151D000838
:1000E000151D0008151D0008151D0008151D000828
:1000F000151D0008151D0008151D0008151D000818
:10010000151D0008151D0008151D0008151D000807
:10011000151D0008151D0008B91F0008151D000851
:10012000151D0008151D0008151D0008151D0008E7
:10013000151D0008151D0008151D0008151D0008D7
:10014000151D0008151D0008151D0008151D0008C7
:10015000151D0008151D0008151D0008151D0008B7
:10016000151D0008151D0008151D0008151D0008A7
:10017000151D0008151D0008151D0008151D000897
:10018000151D0008151D0008151D0008151D000887
:10019000151D0008151D0008151D0008151D000877
:0C01A000151D0008151D0008151D0008A5
:1001AC0010B5054C237833B9044B13B10448AFF3A5
:1001BC0000800123237010BD70000020000000009F
:1001CC00982B000808B5034B1BB103490348AFF348
:1001DC00008008BD0000000074000020982B00086F
:1001EC0053B94AB9002908BF00281CBF4FF0FF3192
:1001FC004FF0FF3000F074B9ADF1080C6DE904CE8E
:10020C0000F006F8DDF804E0DDE9022304B07047E5
:10021C002DE9F047089D04468E46002B4DD18A42AD
:10022C00944669D9B2FA82F252B101FA02F3C2F1E0
:10023C00200120FA01F10CFA02FC41EA030E944071
:10024C004FEA1C48210CBEFBF8F61FFA8CF708FB92
:10025C0016E341EA034306FB07F199420AD91CEB6A
:10026C00030306F1FF3080F01F81994240F21C819C
:10027C00023E63445B1AA4B2B3FBF8F008FB1033E4
:10028C0044EA034400FB07F7A7420AD91CEB040419
:10029C0000F1FF3380F00A81A74240F207816444E9
:1002AC00023840EA0640E41B00261DB1D44000236E
:1002BC00C5E900433146BDE8F0878B4209D9002DD2
:1002CC0000F0EF800026C5E9000130463146BDE85C
:1002DC00F087B3FA83F6002E4AD18B4202D38242C6
:1002EC0000F2F980841A61EB030301209E46002D75
:1002FC00E0D0C5E9004EDDE702B9FFDEB2FA82F2CA
:10030C00002A40F09280A1EB0C014FEA1C471FFA27
:10031C008CFE0126200CB1FBF7F307FB131140EA0E
:10032C0001410EFB03F0884208D91CEB010103F1DB
:10033C00FF3802D2884200F2CB804346091AA4B29D
:10034C00B1FBF7F007FB101144EA01440EFB00FE71
:10035C00A64508D91CEB040400F1FF3102D2A645D6
:10036C0000F2BB800846A4EB0E0440EA03409CE775
:10037C00C6F12007B34022FA07FC4CEA030C20FA22
:10038C0007F401FA06F31C43F9404FEA1C4900FA42
:10039C0006F3B1FBF9F8200C1FFA8CFE09FB1811BF
:1003AC0040EA014108FB0EF0884202FA06F20BD932
:1003BC001CEB010108F1FF3A80F08880884240F282
:1003CC008580A8F102086144091AA4B2B1FBF9F0C6
:1003DC0009FB101144EA014100FB0EFE8E4508D9C1
:1003EC001CEB010100F1FF346CD28E456AD9023846
:1003FC00614440EA0840A0FB0294A1EB0E01A1422B
:10040C00C846A64656D353D05DB1B3EB080261EB98
:10041C000E0101FA07F722FA06F3F1401F43C5E972
:10042C00007100263146BDE8F087C2F12003D840A8
:10043C000CFA02FC21FA03F3914001434FEA1C47EA
:10044C001FFA8CFEB3FBF7F007FB10360B0C43EADC
:10045C00064300FB0EF69E4204FA02F408D91CEB8C
:10046C00030300F1FF382FD29E422DD9023863448A
:10047C009B1B89B2B3FBF7F607FB163341EA03412A
:10048C0006FB0EF38B4208D91CEB010106F1FF3879
:10049C0016D28B4214D9023E6144C91A46EA004670
:1004AC0038E72E46284605E70646E3E61846F8E602
:1004BC004B45A9D2B9EB020864EB0C0E0138A3E74B
:1004CC004646EAE7204694E74046D1E7D0467BE72C
:1004DC00023B614432E7304609E76444023842E7A4
:1004EC00704700BF80B588B000AF78600B467B804A
:1004FC0007F10C0300221A605A609A60DA601A61E4
:10050C007B88FB6001233B6100237B610223BB6181
:10051C0007F10C031946786800F0B0FA00BF2037D9
:10052C00BD4680BD80B58AB000AF78607B684F4A0D
:10053C0093420ED100237B624D4B1B6B4C4A43F014
:10054C00010313634A4B1B6B03F001037B627B6A51
:10055C0087E07B68474A93420ED100233B62444BB1
:10056C001B6B434A43F002031363414B1B6B03F0B9
:10057C0002033B623B6A74E07B683F4A93420ED1B4
:10058C000023FB613A4B1B6B394A43F004031363A2
:10059C00374B1B6B03F00403FB61FB6961E07B6869
:1005AC00364A93420ED10023BB61314B1B6B304A50
:1005BC0043F0080313632E4B1B6B03F00803BB6162
:1005CC00BB694EE07B682E4A93420ED100237B61BF
:1005DC00274B1B6B264A43F010031363244B1B6BF6
:1005EC0003F010037B617B693BE07B68254A9342F7
:1005FC000ED100233B611E4B1B6B1D4A43F02003A5
:10060C0013631B4B1B6B03F020033B613B6928E01E
:10061C007B681D4A93420ED10023FB60144B1B6B6D
:10062C00134A43F040031363114B1B6B03F040035D
:10063C00FB60FB6815E07B68144A93420ED10023E3
:10064C00BB600B4B1B6B0A4A43F080031363084BD4
:10065C001B6B03F08003BB60BB6802E00C4801F02D
:10066C0005FE00BF2837BD4680BD00BF000002401C
:10067C00003802400004024000080240000C024016
:10068C00001002400014024000180240001C0240FE
:10069C00B02B000880B582B000AF78600B467B8031
:1006AC007B881946786800F095FB00BF0837BD467B
:1006BC0080BD000080B582B000AF78600A4A7B68CC
:1006CC001360094B01225A60074B44F61F62DA6033
:1006DC00054801F04DF80346002B01D001F0DAFB80
:1006EC0000BF0837BD4680BD8C00002080B500AF30
:1006FC00024801F08DF800BF80BD00BF8C000020C7
:10070C0080B483B000AF7860054B1B680133044A9A
:10071C00136000BF0C37BD465DF8047B704700BF0B
:10072C00D400002080B400AF034B1B681846BD46B4
:10073C005DF8047B704700BFD400002080B483B008
:10074C0000AF0346FB71FB79034A136000BF0C3703
:10075C00BD465DF8047B7047D400002080B500AF27
:10076C000E4B1B680D4A43F4007313600B4B1B6854
:10077C000A4A43F480631360084B1B68074A43F42E
:10078C0080731360032000F02BF9002000F008F8B0
:10079C0001F086FB0023184680BD00BF003C0240E0
:1007AC0080B582B000AF7860124B1A68124B1B7880
:1007BC0019464FF47A73B3FBF1F3B2FBF3F318461B
:1007CC0000F043F90346002B01D001230EE07B68B7
:1007DC000F2B0AD8002279684FF0FF3000F00BF98C
:1007EC00064A7B681360002300E001231846083793
:1007FC00BD4680BD08000020040000200000002041
:10080C0080B400AF064B1B781A46064B1B6813448A
:10081C00044A136000BFBD465DF8047B704700BFFF
:10082C0004000020D800002080B400AF034B1B68EC
:10083C001846BD465DF8047B704700BFD800002009
:10084C0080B485B000AF78607B6803F00703FB6071
:10085C000C4BDB68BB60BA684FF6FF031340BB6000
:10086C00FB681A02BB68134343F0BF6343F40033C5
:10087C00BB60044ABB68D36000BF1437BD465DF84B
:10088C00047B704700ED00E080B400AF044BDB68E4
:10089C001B0A03F007031846BD465DF8047B70473E
:1008AC0000ED00E080B483B000AF0346FB7197F914
:1008BC000730002B0BDBFB7903F01F02074997F97C
:1008CC0007305B09012000FA02F241F8232000BF37
:1008DC000C37BD465DF8047B704700BF00E100E0BB
:1008EC0080B483B000AF03463960FB7197F90730D1
:1008FC00002B0ADB3B68DAB20C4997F9073012017E
:10090C00D2B20B4483F800230AE03B68DAB2084900
:10091C00FB7903F00F03043B1201D2B20B441A769D
:10092C0000BF0C37BD465DF8047B704700E100E06A
:10093C0000ED00E080B489B000AFF860B9607A6077
:10094C00FB6803F00703FB61FB69C3F10703042B8E
:10095C0028BF0423BB61FB690433062B02D9FB6956
:10096C00033B00E000237B614FF0FF32BB6902FACE
:10097C0003F3DA43BB681A407B699A404FF0FF31AE
:10098C007B6901FA03F3D9437B680B401343184688
:10099C002437BD465DF8047B7047000080B582B0FB
:1009AC0000AF78607B68013BB3F1807F01D30123FA
:1009BC000FE00A4A7B68013B53600F214FF0FF3078
:1009CC00FFF78EFF054B00229A60044B07221A603A
:1009DC00002318460837BD4680BD00BF10E000E07C
:1009EC0080B582B000AF78607868FFF729FF00BF50
:1009FC000837BD4680BD80B586B000AF0346B960F0
:100A0C007A60FB7300237B61FFF73EFF78617A68A5
:100A1C00B9687869FFF78EFF024697F90F301146D7
:100A2C001846FFF75DFF00BF1837BD4680BD80B587
:100A3C0082B000AF0346FB7197F907301846FFF7F9
:100A4C0031FF00BF0837BD4680BD80B582B000AF16
:100A5C0078607868FFF7A2FF034618460837BD4652
:100A6C0080BD80B500AF00F002F800BF80BD80B43F
:100A7C0000AF00BFBD465DF8047B704780B489B001
:100A8C0000AF7860396000237B6100233B61002359
:100A9C00BB610023FB6177E10122FB6902FA03F3DE
:100AAC007B613B681B687A6913403B613A697B69DF
:100ABC009A4240F066813B685B6803F00303012BAC
:100ACC0005D03B685B6803F00303022B30D17B68D5
:100ADC009B68BB61FB695B00032202FA03F3DB43F7
:100AEC00BA691340BB613B68DA68FB695B0002FAC8
:100AFC0003F3BA691343BB617B68BA699A607B687C
:100B0C005B68BB610122FB6902FA03F3DB43BA6940
:100B1C001340BB613B685B681B0903F00102FB6976
:100B2C0002FA03F3BA691343BB617B68BA695A6072
:100B3C003B685B6803F00303032B17D07B68DB680F
:100B4C00BB61FB695B00032202FA03F3DB43BA6966
:100B5C001340BB613B689A68FB695B0002FA03F3C4
:100B6C00BA691343BB617B68BA69DA603B685B683E
:100B7C0003F00303022B23D1FB69DA087B680832EC
:100B8C0053F82230BB61FB6903F007039B000F2273
:100B9C0002FA03F3DB43BA691340BB613B681A6981
:100BAC00FB6903F007039B0002FA03F3BA691343D2
:100BBC00BB61FB69DA087B680832B96943F822101B
:100BCC007B681B68BB61FB695B00032202FA03F3C1
:100BDC00DB43BA691340BB613B685B6803F00302FB
:100BEC00FB695B0002FA03F3BA691343BB617B68D0
:100BFC00BA691A603B685B6803F44033002B00F061
:100C0C00C0800023FB60664B5B6C654A43F48043F9
:100C1C005364634B5B6C03F48043FB60FB68614A79
:100C2C00FB699B08023352F82330BB61FB6903F06C
:100C3C0003039B000F2202FA03F3DB43BA69134050
:100C4C00BB617B68584A934237D07B68574A9342C2
:100C5C0031D07B68564A93422BD07B68554A9342DD
:100C6C0025D07B68544A93421FD07B68534A9342E9
:100C7C0019D07B68524A934213D07B68514A9342F5
:100C8C000DD07B68504A934207D07B684F4A934201
:100C9C0001D1092312E00A2310E008230EE00723F8
:100CAC000CE006230AE0052308E0042306E00323F6
:100CBC0004E0022302E0012300E00023FA6902F0C1
:100CCC00030292009340BA691343BB613549FB6937
:100CDC009B080233BA6941F823203D4B9B68BB61EA
:100CEC003B69DB43BA691340BB613B685B6803F447
:100CFC008013002B03D0BA693B691343BB61344AA0
:100D0C00BB699360324BDB68BB613B69DB43BA69FF
:100D1C001340BB613B685B6803F40013002B03D0EA
:100D2C00BA693B691343BB61294ABB69D360284B41
:100D3C005B68BB613B69DB43BA691340BB613B68D1
:100D4C005B6803F40033002B03D0BA693B6913438F
:100D5C00BB611F4ABB6953601D4B1B68BB613B6980
:100D6C00DB43BA691340BB613B685B6803F48033B7
:100D7C00002B03D0BA693B691343BB61144ABB69AE
:100D8C001360FB690133FB61FB690F2B7FF684AEAB
:100D9C0000BF00BF2437BD465DF8047B704700BF21
:100DAC0000380240003801400000024000040240BC
:100DBC0000080240000C02400010024000140240E7
:100DCC0000180240001C0240002002400024024097
:100DDC00003C014080B485B000AF78600B467B804E
:100DEC007B685B69FB607A88FB6813401A04FB68BC
:100DFC00D9437B880B401A437B689A6100BF143738
:100E0C00BD465DF8047B704780B582B000AF00230F
:100E1C007B6000233B60204B1B6C1F4A43F08053CC
:100E2C0013641D4B1B6C03F080533B603B681B4BE6
:100E3C0001221A60FFF7F8FC786009E0FFF7F4FC78
:100E4C0002467B68D31AB3F57A7F01D903231FE0DE
:100E5C00134B5B6803F48033B3F5803FEED1114B39
:100E6C0001221A60FFF7E0FC786009E0FFF7DCFC78
:100E7C0002467B68D31AB3F57A7F01D9032307E0C6
:100E8C00074B5B6803F40033B3F5003FEED100234E
:100E9C0018460837BD4680BD0038024040000E425F
:100EAC000070004044000E4280B586B000AF786000
:100EBC007B68002B01D1012367E27B681B6803F080
:100ECC000103002B75D0884B9B6803F00C03042B9B
:100EDC000CD0854B9B6803F00C03082B12D1824B72
:100EEC005B6803F48003B3F5800F0BD17E4B1B685A
:100EFC0003F40033002B5BD07B685B68002B57D16D
:100F0C00012342E27B685B68B3F5803F06D1764BE8
:100F1C001B68754A43F4803313601DE07B685B6883
:100F2C00B3F5A02F0CD1704B1B686F4A43F4802390
:100F3C0013606D4B1B686C4A43F4803313600BE0F9
:100F4C00694B1B68684A23F480331360664B1B683B
:100F5C00654A23F4802313607B685B68002B13D0F5
:100F6C00FFF762FC386108E0FFF75EFC02463B6964
:100F7C00D31A642B01D9032307E25B4B1B6803F4E0
:100F8C000033002BF0D014E0FFF74EFC386108E082
:100F9C00FFF74AFC02463B69D31A642B01D90323A1
:100FAC00F3E1514B1B6803F40033002BF0D100E04C
:100FBC0000BF7B681B6803F00203002B63D04A4B15
:100FCC009B6803F00C03002B0BD0474B9B6803F082
:100FDC000C03082B1CD1444B5B6803F48003002BDF
:100FEC0016D1414B1B6803F00203002B05D07B6824
:100FFC00DB68012B01D00123C7E13B4B1B6823F0BD
:10100C00F8027B681B69DB00374913430B603AE03D
:10101C007B68DB68002B20D0344B01221A60FFF771
:10102C0003FC386108E0FFF7FFFB02463B69D31A6B
:10103C00022B01D90323A8E12B4B1B6803F00203FD
:10104C00002BF0D0284B1B6823F0F8027B681B693F
:10105C00DB00254913430B6015E0244B00221A607A
:10106C00FFF7E2FB386108E0FFF7DEFB02463B6965
:10107C00D31A022B01D9032387E11B4B1B6803F006
:10108C000203002BF0D17B681B6803F00803002BD4
:10109C0036D07B685B69002B16D0154B01221A6089
:1010AC00FFF7C2FB386108E0FFF7BEFB02463B6965
:1010BC00D31A022B01D9032367E10B4B5B6F03F0AF
:1010CC000203002BF0D01BE0094B00221A60FFF743
:1010DC00ABFB38610EE0FFF7A7FB02463B69D31A66
:1010EC00022B07D9032350E100380240000047428D
:1010FC00800E4742884B5B6F03F00203002BEAD152
:10110C007B681B6803F00403002B00F0978000231E
:10111C00FB75814B1B6C03F08053002B0FD100230C
:10112C00BB607D4B1B6C7C4A43F0805313647A4B41
:10113C001B6C03F08053BB60BB680123FB75774BC2
:10114C001B6803F48073002B18D1744B1B68734A13
:10115C0043F480731360FFF767FB386108E0FFF717
:10116C0063FB02463B69D31A022B01D903230CE122
:10117C006A4B1B6803F48073002BF0D07B689B6870
:10118C00012B06D1644B1B6F634A43F001031367B9
:10119C001CE07B689B68052B0CD15F4B1B6F5E4A78
:1011AC0043F0040313675C4B1B6F5B4A43F0010372
:1011BC0013670BE0584B1B6F574A23F0010313675F
:1011CC00554B1B6F544A23F0040313677B689B68D1
:1011DC00002B15D0FFF728FB38610AE0FFF724FB42
:1011EC0002463B69D31A41F28832934201D9032358
:1011FC00CBE0494B1B6F03F00203002BEED014E045
:10120C00FFF712FB38610AE0FFF70EFB02463B6961
:10121C00D31A41F28832934201D90323B5E03E4BF5
:10122C001B6F03F00203002BEED1FB7D012B05D1CC
:10123C00394B1B6C384A23F0805313647B689B69D1
:10124C00002B00F0A180344B9B6803F00C03082B9F
:10125C005CD07B689B69022B41D1314B00221A6018
:10126C00FFF7E2FA386108E0FFF7DEFA02463B6965
:10127C00D31A022B01D9032387E0274B1B6803F0F9
:10128C000073002BF0D17B68DA697B681B6A1A4308
:10129C007B685B6A9B011A437B689B6A5B08013B1A
:1012AC001B041A437B68DB6A1B061B4913434B6008
:1012BC001B4B01221A60FFF7B7FA386108E0FFF701
:1012CC00B3FA02463B69D31A022B01D903235CE023
:1012DC00114B1B6803F00073002BF0D054E0104B43
:1012EC0000221A60FFF7A0FA386108E0FFF79CFAB9
:1012FC0002463B69D31A022B01D9032345E0064B66
:10130C001B6803F00073002BF0D13DE07B689B69F8
:10131C00012B07D1012338E0003802400070004057
:10132C00600047421B4B5B68FB607B689B69012B31
:10133C0028D0FB6803F480027B68DB699A4221D1D8
:10134C00FB6803F03F027B681B6A9A421AD1FA6869
:10135C0047F6C07313407A68526A9201934211D1D6
:10136C00FB6803F440327B689B6A5B08013B1B04FF
:10137C009A4207D1FB6803F070627B68DB6A1B063C
:10138C009A4201D0012300E0002318461837BD46CD
:10139C0080BD00BF0038024080B584B000AF7860DB
:1013AC0039607B68002B01D10123CCE0684B1B68B2
:1013BC0003F00F033A689A420CD9654B3A68D2B2E3
:1013CC001A70634B1B6803F00F033A689A4201D002
:1013DC000123B8E07B681B6803F00203002B20D0CC
:1013EC007B681B6803F00403002B05D0594B9B68EA
:1013FC00584A43F4E05393607B681B6803F008037E
:10140C00002B05D0534B9B68524A43F460439360C6
:10141C00504B9B6823F0F0027B689B684D4913434B
:10142C008B607B681B6803F00103002B44D07B6846
:10143C005B68012B07D1474B1B6803F40033002B6F
:10144C0019D101237FE07B685B68022B03D07B689A
:10145C005B68032B07D13F4B1B6803F00073002B19
:10146C0009D101236FE03B4B1B6803F00203002BF7
:10147C0001D1012367E0374B9B6823F003027B68A3
:10148C005B68344913438B60FFF7CEF9F8600AE0D0
:10149C00FFF7CAF90246FB68D31A41F2883293422D
:1014AC0001D903234FE02B4B9B6803F00C027B68A4
:1014BC005B689B009A42EBD1254B1B6803F00F0332
:1014CC003A689A420CD2224B3A68D2B21A70204B2C
:1014DC001B6803F00F033A689A4201D0012332E0F3
:1014EC007B681B6803F00403002B08D0194B9B6826
:1014FC0023F4E0527B68DB68164913438B607B68EE
:10150C001B6803F00803002B09D0124B9B6823F4D3
:10151C0060427B681B69DB000E4913438B6000F053
:10152C0021F802460B4B9B681B0903F00F030A4979
:10153C00CB5C22FA03F3094A1360094B1B6818466B
:10154C00FFF72EF9002318461037BD4680BD00BFAB
:10155C00003C024000380240C42B00080800002068
:10156C00000000202DE9B04F94B000AF00237B6445
:10157C000023FB6400233B640023BB64794B9B6812
:10158C0003F00C03082B0DD0082B00F2E180002B8C
:10159C0002D0042B03D0DBE0734BBB64DBE0734B5A
:1015AC00BB64D8E06F4B5B6803F03F037B646D4B0F
:1015BC005B6803F48003002B63D06A4B5B689B0968
:1015CC000022BB63FA63BB6BC3F308033B630023CA
:1015DC007B63D7E90C4522462B464FF000004FF0B9
:1015EC000001590141EAD261500102460B462146E5
:1015FC00511A3961294663EB01037B614FF00002FC
:10160C004FF00003D7E904AB59468B01514643EA2E
:10161C00916351468A015146B2EB0108594663EB7E
:10162C0001094FF000024FF000034FEAC90343EAEF
:10163C0058734FEAC80290469946234618EB0303A9
:10164C00BB602B4649EB0303FB604FF000024FF0ED
:10165C000003D7E9024529464B02214643EAD15300
:10166C0021464A02104619467B6C0022BB62FA6284
:10167C00D7E90A23FEF7B4FD02460B461346FB647A
:10168C0058E0384B5B689B09002218461146C0F3A2
:10169C0008033B6200237B62D7E9088942464B462C
:1016AC004FF000004FF00001590141EAD2615001A6
:1016BC0002460B464146B2EB010A494663EB010B6D
:1016CC004FF000024FF000034FEA8B1343EA9A638A
:1016DC004FEA8A12B2EB0A0463EB0B054FF00002DF
:1016EC004FF00003EB0043EA5473E20014461D462E
:1016FC004346E3183B604B4645EB03037B604FF0DE
:10170C0000024FF00003D7E9004529468B02214621
:10171C0043EA915321468A02104619467B6C0022FB
:10172C00BB61FA61D7E90623FEF75AFD02460B4668
:10173C001346FB640B4B5B681B0C03F00303013378
:10174C005B003B64FA6C3B6CB2FBF3F3BB6402E0F2
:10175C00054BBB6400BFBB6C18465037BD46BDE89B
:10176C00B08F00BF003802400024F40000127A0051
:10177C0080B582B000AF78607B68002B01D101236B
:10178C0041E07B6893F83D30DBB2002B06D17B68DF
:10179C00002283F83C20786800F0BCFB7B680222B6
:1017AC0083F83D207B681A687B6804331946104621
:1017BC0000F0CEF97B68012283F846207B68012279
:1017CC0083F83E207B68012283F83F207B6801224E
:1017DC0083F840207B68012283F841207B6801223A
:1017EC0083F842207B68012283F843207B68012226
:1017FC0083F844207B68012283F845207B68012212
:10180C0083F83D20002318460837BD4680BD0000F4
:10181C0080B485B000AF78607B6893F83D30DBB264
:10182C00012B01D001234EE07B68022283F83D207E
:10183C007B681B68DA687B681B6842F00102DA601F
:10184C007B681B68234A934222D07B681B68B3F1E8
:10185C00804F1DD07B681B681F4A934218D07B6851
:10186C001B681E4A934213D07B681B681C4A934228
:10187C000ED07B681B681B4A934209D07B681B689F
:10188C00194A934204D07B681B68184A934211D1C1
:10189C007B681B689B6803F00703FB60FB68062BE7
:1018AC0010D07B681B681A687B681B6842F00102C9
:1018BC001A6007E07B681B681A687B681B6842F03B
:1018CC0001021A60002318461437BD465DF8047BEC
:1018DC00704700BF000001400004004000080040B9
:1018EC00000C004000040140004001400018004082
:1018FC0080B582B000AF78607B681B681B6903F011
:10190C000203022B22D17B681B68DB6803F0020305
:10191C00022B1BD17B681B686FF002021A617B687B
:10192C0001221A777B681B689B6903F00303002B69
:10193C0003D0786800F0EEF805E0786800F0E0F885
:10194C00786800F0F1F87B6800221A777B681B68D6
:10195C001B6903F00403042B22D17B681B68DB6832
:10196C0003F00403042B1BD17B681B686FF004028B
:10197C001A617B6802221A777B681B689B6903F4E7
:10198C004073002B03D0786800F0C4F805E0786849
:10199C0000F0B6F8786800F0C7F87B6800221A7778
:1019AC007B681B681B6903F00803082B22D17B683A
:1019BC001B68DB6803F00803082B1BD17B681B68D2
:1019CC006FF008021A617B6804221A777B681B6827
:1019DC00DB6903F00303002B03D0786800F09AF85E
:1019EC0005E0786800F08CF8786800F09DF87B686A
:1019FC0000221A777B681B681B6903F01003102BFD
:101A0C0022D17B681B68DB6803F01003102B1BD101
:101A1C007B681B686FF010021A617B6808221A77CA
:101A2C007B681B68DB6903F44073002B03D0786878
:101A3C0000F070F805E0786800F062F8786800F063
:101A4C0073F87B6800221A777B681B681B6903F0AC
:101A5C000103012B0ED17B681B68DB6803F00103CB
:101A6C00012B07D17B681B686FF001021A61786843
:101A7C00FEF746FE7B681B681B6903F08003802B16
:101A8C000ED17B681B68DB6803F08003802B07D1C9
:101A9C007B681B686FF080021A61786800F002F9AD
:101AAC007B681B681B6903F04003402B0ED17B68DD
:101ABC001B68DB6803F04003402B07D17B681B6875
:101ACC006FF040021A61786800F038F87B681B6888
:101ADC001B6903F02003202B0ED17B681B68DB688D
:101AEC0003F02003202B07D17B681B686FF02002CA
:101AFC001A61786800F0CCF800BF0837BD4680BD8D
:101B0C0080B483B000AF786000BF0C37BD465DF881
:101B1C00047B704780B483B000AF786000BF0C3793
:101B2C00BD465DF8047B704780B483B000AF78602D
:101B3C0000BF0C37BD465DF8047B704780B483B0A2
:101B4C0000AF786000BF0C37BD465DF8047B704772
:101B5C0080B485B000AF786039607B681B68FB602F
:101B6C007B68404A934213D07B68B3F1804F0FD00F
:101B7C007B683D4A93420BD07B683C4A934207D02A
:101B8C007B683B4A934203D07B683A4A934208D124
:101B9C00FB6823F07003FB603B685B68FA681343D7
:101BAC00FB607B682F4A93422BD07B68B3F1804F4C
:101BBC0027D07B682C4A934223D07B682B4A9342D4
:101BCC001FD07B682A4A93421BD07B68294A9342D8
:101BDC0017D07B68284A934213D07B68274A9342DC
:101BEC000FD07B68264A93420BD07B68254A9342E0
:101BFC0007D07B68244A934203D07B68234A9342E4
:101C0C0008D1FB6823F44073FB603B68DB68FA681F
:101C1C001343FB60FB6823F080023B685B69134352
:101C2C00FB607B68FA681A603B689A687B68DA62CA
:101C3C003B681A687B689A627B680A4A934203D0B5
:101C4C007B680C4A934203D13B681A697B681A6320
:101C5C007B6801225A6100BF1437BD465DF8047BD6
:101C6C00704700BF00000140000400400008004025
:101C7C00000C0040000401400040014000440140C1
:101C8C000048014000180040001C004000200040AB
:101C9C0080B483B000AF786000BF0C37BD465DF8F0
:101CAC00047B704780B483B000AF786000BF0C3702
:101CBC00BD465DF8047B70470D48854600F024FA5C
:101CCC000C480D490D4A002302E0D458C45004338B
:101CDC00C4188C42F9D30A4A0A4C002301E0136061
:101CEC000432A242FBD300F027FA00F00FF8FEE713
:101CFC00000003200000002070000020482C000889
:101D0C0070000020F8000020FEE7000080B500AF56
:101D1C00FEF724FD00F04EF82248FEF703FC2248A3
:101D2C00FEF7C8FC4FF480411E48FEF7DBFB4FF476
:101D3C0000511C48FEF7D6FBFEF7D8FCFEF7F2FC70
:101D4C000346002BFAD0FEF7EDFC0246174B1B683E
:101D5C001344164A1360FEF7E5FC0246144B1B684D
:101D6C001344134A13600020FEF7E8FC0F4B1B686A
:101D7C00B3F57A7F07D10D4B00221A604FF4005156
:101D8C000848FEF787FC0A4B1B68B3F5FA7FD5D1E0
:101D9C00074B00221A604FF480410248FEF77AFC90
:101DAC00CCE700BF0018024000100040DC0000200F
:101DBC00E000002080B594B000AF07F12003302282
:101DCC000021184600F0DCF907F10C0300221A6020
:101DDC005A609A60DA601A610023BB602B4B1B6C53
:101DEC002A4A43F080531364284B1B6C03F0805336
:101DFC00BB60BB6800237B60254B1B68244A43F403
:101E0C0040431360224B1B6803F440437B607B68A8
:101E1C0001233B624FF480337B620223BB634FF49C
:101E2C008003FB6304233B6450237B640223BB6469
:101E3C000723FB6407F120031846FFF735F8034628
:101E4C00002B01D000F026F8FEF7DEFF0346002B36
:101E5C0001D000F01FF80F23FB6002233B6100232D
:101E6C007B614FF4A053BB614FF48053FB6107F1CE
:101E7C000C0305211846FFF78FFA0346002B01D0FF
:101E8C0000F008F800BF5037BD4680BD0038024056
:101E9C000070004080B400AF72B600BFFEE70000D7
:101EAC0080B582B000AF00237B60194B5B6C184A85
:101EBC0043F480435364164B5B6C03F480437B60A8
:101ECC007B6800233B60124B1B6C114A43F0805320
:101EDC0013640F4B1B6C03F080533B603B68072073
:101EEC00FEF77EFD002200216FF00B00FEF783FD54
:101EFC00002200216FF00A00FEF77DFD0022002178
:101F0C006FF00900FEF777FD00BF0837BD4680BDB6
:101F1C000038024080B584B000AF78600023FB60CD
:101F2C000B4B1B6C0A4A43F010031364084B1B6CDD
:101F3C0003F01003FB60FB683620FEF778FD0022EF
:101F4C000F213620FEF757FD00BF1037BD4680BD70
:101F5C000038024080B400AFFEE780B400AFFEE76B
:101F6C0080B400AFFEE780B400AFFEE780B400AFF2
:101F7C00FEE780B400AF00BFBD465DF8047B704740
:101F8C0080B400AF00BFBD465DF8047B704780B4E1
:101F9C0000AF00BFBD465DF8047B704780B500AF55
:101FAC00FEF72EFCFEF75DFD00BF80BD80B500AFD7
:101FBC000248FFF79DFC00BF80BD00BF8C000020D5
:101FCC0080B586B000AFF860B9607A6000237B61A1
:101FDC000AE0AFF300800146BB685A1CBA60CAB273
:101FEC001A707B6901337B617A697B689A42F0DBFA
:101FFC007B6818461837BD4680BD80B586B000AFEB
:10200C00F860B9607A6000237B6109E0BB685A1CF8
:10201C00BA601B781846AFF300807B6901337B6193
:10202C007A697B689A42F1DB7B6818461837BD46A3
:10203C0080BD80B483B000AF78604FF0FF3318469A
:10204C000C37BD465DF8047B704780B483B000AF9D
:10205C00786039603B684FF400525A600023184690
:10206C000C37BD465DF8047B704780B483B000AF7D
:10207C007860012318460C37BD465DF8047B704729
:10208C0080B485B000AFF860B9607A600023184660
:10209C001437BD465DF8047B7047000080B586B0F0
:1020AC0000AF7860144A154BD31A7B617B693B6196
:1020BC00134B1B68002B02D1114B124A1A60104BA8
:1020CC001A687B6813443A699A4207D200F02EF8DA
:1020DC0003460C221A604FF0FF3309E0084B1B68D3
:1020EC00FB60074B1A687B681344054A1360FB6856
:1020FC0018461837BD4680BD0000032000040000C0
:10210C00E4000020F800002080B400AF064BD3F8A8
:10211C008830054A43F47003C2F8883000BFBD46CE
:10212C005DF8047B704700BF00ED00E0014B1868C0
:10213C00704700BF0C00002070B50D4D0D4C641B9A
:10214C00A4100026A64209D10B4D0C4C00F01EFD2C
:10215C00641BA4100026A64205D170BD55F8043BA3
:10216C0098470136EEE755F8043B98470136F2E7FD
:10217C00402C0008402C0008402C0008442C00087F
:10218C0002440346934200D1704703F8011BF9E760
:10219C0070B50E46054618B183690BB900F048FAC4
:1021AC00AB69AC6813B9284600F042FA2C4B9C4240
:1021BC0020D16C68636EDB0705D4A389980502D423
:1021CC00A06D00F0D3FAA38919071DD52369DBB1E3
:1021DC00013EA36816F8011F013BA36039BB002B1D
:1021EC0038DA22460A21284600F048F8013011D08E
:1021FC000A2511E01B4B9C4201D1AC68DAE71A4B63
:10220C009C4208BFEC68D5E72146284600F088F8C8
:10221C000028DDD04FF0FF35636EDA0705D4A389B3
:10222C009B0502D4A06D00F0A2FA284670BD002BCD
:10223C0004DAA2699A4206DC0A2904D023685A1CE3
:10224C0022601970C5E72246284600F017F80130C5
:10225C00BFD1DFE723680A255A1C22601D70DBE71B
:10226C00F82B0008182C0008D82B0008024B01464C
:10227C001868FFF78DBF00BF0C000020F8B50E46A4
:10228C001446054618B183690BB900F0D1F9214BFE
:10229C009C422BD16C68A369A360A3891A072FD524
:1022AC0023696BB323692068C01A6369F6B2834251
:1022BC00374604DC2146284600F026F930BBA368DB
:1022CC00013BA36023685A1C22601E7063690130B5
:1022DC00834204D0A389DB0706D50A2E04D12146FC
:1022EC00284600F011F988B93846F8BD0A4B9C42D3
:1022FC0001D1AC68CFE7094B9C4208BFEC68CAE738
:10230C002146284600F00CF80028CBD04FF0FF37C0
:10231C00EAE700BFF82B0008182C0008D82B00089F
:10232C00324B70B51D6806460C4625B1AB6913B926
:10233C00284600F07DF92E4B9C420FD16C68A38986
:10234C00B4F90C2019072CD4DD0611D40923336001
:10235C0042F04003A3814FF0FF303EE0254B9C42FE
:10236C0001D1AC68EBE7244B9C4208BFEC68E6E774
:10237C00580712D5616B41B104F14403994202D064
:10238C00304600F05BFA00236363A38923F0240337
:10239C00A3810023636023692360A38943F00803AE
:1023AC00A38123694BB9A38903F42073B3F5007F90
:1023BC0003D02146304600F001FAA089B4F90C2074
:1023CC0010F001030AD00023A36063695B42A36190
:1023DC00236943B910F08000BAD170BD810758BF92
:1023EC006369A360F4E70020F7E700BF0C0000204E
:1023FC00F82B0008182C0008D82B00088A892DE926
:10240C00F041054610070C4658D44B68002B05DCF0
:10241C000B6C002B02DC0020BDE8F081E66A002E7C
:10242C00F9D0002312F480522F682B6032D0606DEB
:10243C00A3895A0705D56368C01A636B0BB1236C6B
:10244C00C01A00230246E66A216A2846B047431C9C
:10245C00A38906D129681D292CD82A4ACA40D60737
:10246C0028D500226260D9042269226004D5421C5E
:10247C0001D12B6803B96065616B2F600029CAD04C
:10248C0004F14403994202D0284600F0D7F9002009
:10249C006063C1E7216A01232846B047411CC7D1BC
:1024AC002B68002BC4D01D2B01D0162B01D12F6013
:1024BC00B1E7A38943F04003A381ADE70F69002F77
:1024CC00A9D093070E6808BF4B690F6018BF002393
:1024DC00A6EB07088B60B8F1000F9CDD216AA66A99
:1024EC0043463A462846B047002806DCA38943F009
:1024FC004003A3814FF0FF308EE70744A8EB0008A0
:10250C00E9E700BF0100402038B50B6905460C46D1
:10251C0013B90025284638BD18B183690BB900F0F2
:10252C0087F8144B9C421BD16C68B4F90C30002B0F
:10253C00EFD0626ED00704D4990502D4A06D00F0E0
:10254C0015F928462146FFF759FF636EDA07054651
:10255C00E0D4A3899B05DDD4A06D00F008F9D9E780
:10256C00054B9C4201D1AC68DFE7044B9C4208BF91
:10257C00EC68DAE7F82B0008182C0008D82B0008B8
:10258C00002310B50446C0E90033C0E9043383606E
:10259C0081814366C2818361194608225C30FFF752
:1025AC00EFFD054B6362054BA362054BE362054BE4
:1025BC002462236310BD00BF292A00084B2A00089F
:1025CC00832A0008A72A0008014900F0AFB800BF11
:1025DC001525000870B568224D1E55430E4605F1B1
:1025EC00740100F097F9044640B10021C0E90016CF
:1025FC000C30A06005F16802FFF7C2FD204670BDEB
:10260C00014800F0B3B800BFE9000020014800F019
:10261C00AEB800BFE9000020014800F0A7B800BF29
:10262C00EA000020014800F0A2B800BFEA00002038
:10263C0010B50446FFF7F0FFA3691BB1BDE81040CD
:10264C00FFF7F0BFC4E912332365134B134A1B6821
:10265C00A262A34204BF0123A361204600F020F82C
:10266C006060204600F01CF8A060204600F018F8CE
:10267C000022E06004216068FFF782FFA06801225D
:10268C000921FFF77DFFE06802221221FFF778FF96
:10269C000123A361D2E700BFD42B0008D525000885
:1026AC00F8B50746FFF7ACFF1E4B1E68B36913B9AC
:1026BC003046FFF7BDFF4836D6E90134013B03D560
:1026CC0033680BB33668F7E7B4F90C50D5B9164B31
:1026DC00E36004F15800656600F047F8FFF796FFD9
:1026EC00C4E90155C4E904552560A56108222946B1
:1026FC0004F15C00FFF744FDC4E90D55C4E9125523
:10270C002046F8BD6834D9E704213846FFF762FF4C
:10271C00044630600028D5D1FFF778FF0C233B60CE
:10272C00EEE700BFD42B00080100FFFF2DE9F843B2
:10273C000646884600F148040027D4E90195B9F112
:10274C00010905D52468002CF7D13846BDE8F8837B
:10275C00AB89012B07D9B5F90E30013303D02946CB
:10276C003046C04707436835E9E770477047704704
:10277C0070B50E46B1F90E10002996B014461D46E0
:10278C0008DAB6F90C3000222A601A0610D44FF47D
:10279C0080630EE06A4600F0A7F90028F1DB019A8D
:1027AC0002F47042A2F500535A425A412A60EEE7F5
:1027BC0040230020236016B070BD00008B8973B5D8
:1027CC009D0706460C4607D504F147032360236199
:1027DC000123636102B070BD01AB6A46FFF7C8FF0D
:1027EC0000990546304600F095F848B9B4F90C301C
:1027FC009A05EFD423F0030343F00203A381E3E72C
:10280C000D4BB362A389206043F08003A381009B2E
:10281C006361019B20615BB1B4F90E10304600F08E
:10282C0075F928B1A38923F0030343F00103A381B5
:10283C00A0890543A581CDE7D525000837B500292A
:10284C0044D051F8043C0190002BA1F10404B8BF12
:10285C00E41800F07DF91E4A0198136833B96360DF
:10286C00146003B0BDE8304000F078B9A34208D939
:10287C00256861198B4201BF19685B684919216091
:10288C00EDE71A465B680BB1A342FAD911685518EB
:10289C00A5420BD1246821445418A3421160E0D105
:1028AC001C685B68536021441160DAE702D90C2381
:1028BC000360D6E7256861198B4204BF19685B6811
:1028CC00636004BF491921605460CAE703B030BD8E
:1028DC00EC00002070B50E4E0C463168054611B95F
:1028EC0000F08CF830602146284600F087F8431C35
:1028FC000AD0C41C24F00304A04207D0211A284695
:10290C0000F07CF8013001D14FF0FF34204670BD4F
:10291C00F00000202DE9F041CD1C25F00305083511
:10292C000C2D38BF0C25002D074601DBA94205D91B
:10293C000C233B6000263046BDE8F0812E4E00F0A3
:10294C0007F933681C4634BB29463846FFF7C2FFEB
:10295C00431C04464DD134682646002E40D12368D2
:10296C003146384604EB030800F048F880453AD16C
:10297C00216803356D1A25F0030508350C2D38BF79
:10298C000C2529463846FFF7A5FF01302BD02368CC
:10299C002B4423600EE02268521B1ED40B2A16D93E
:1029AC006119A342256018BF5960636808BF316084
:1029BC0062514B60384604F10B0600F0CFF826F05C
:1029CC000706231DF21AB6D09B1BA350B3E762680F
:1029DC00A3420CBF32605A60ECE723466468B2E74E
:1029EC0034467668B9E70C233B60384600F0B6F8FD
:1029FC00A1E72560DEE700BFEC00002038B5064DEE
:102A0C000023044608462B60FFF748FB431C02D109
:102A1C002B6803B1236038BDF400002010B50C46C0
:102A2C00B1F90E1000F0A0F80028ABBF636DA389BC
:102A3C001B1823F48053ACBF6365A38110BD2DE933
:102A4C00F0411F468B89DB0505460C46164605D51D
:102A5C00B1F90E100223002200F068F8A389B4F932
:102A6C000E1023F48053A38132463B462846BDE822
:102A7C00F04100F017B810B50C46B1F90E1000F08B
:102A8C0055F8431CA38915BF606523F4805343F4A8
:102A9C008053A38118BFA38110BDB1F90E1000F0B3
:102AAC0013B8000038B5074D0446084611460022FD
:102ABC002A601A46FFF7A1FA431C02D12B6803B116
:102ACC00236038BDF400002038B5064D00230446C1
:102ADC0008462B60FFF7ADFA431C02D12B6803B1FB
:102AEC00236038BDF400002038B5074D00230446A0
:102AFC00084611462B60FFF7A8FA431C02D12B683D
:102B0C0003B1236038BD00BFF400002038B5064D7A
:102B1C000023044608462B60FFF7A7FA431C02D19A
:102B2C002B6803B1236038BDF400002038B5074D85
:102B3C0004460846114600222A601A46FFF7A0FAFE
:102B4C00431C02D12B6803B1236038BDF400002074
:102B5C000148FFF70BBE00BFE80000200148FFF75B
:102B6C0006BE00BFE800002038B5074D04460846F5
:102B7C00114600222A601A46FFF722FA431C02D1A2
:102B8C002B6803B1236038BDF4000020F8B500BFFA
:102B9C00F8BC08BC9E467047F8B500BFF8BC08BC32
:042BAC009E4670478A
:102BB000456E7465722056616C696420506F727442
:102BC0000D000000000000000000000001020304EE
:102BD00006070809100000200000000000000000A7
:102BE00000000000000000000000000000000000E5
:102BF00000000000000000000000000000000000D5
:102C000000000000000000000000000000000000C4
:102C100000000000000000000000000000000000B4
:102C200000000000000000000000000000000000A4
:082C300000000000000000009C
:082C3800E4D5FF7F010000005C
:042C4000D1010008B6
:042C4400AD010008D6
:102C480010000000010000000024F4001000002023
:102C580000000000F82B0008182C0008D82B0008EA
:102C6800000000000000000000000000000000005C
:102C7800000000000000000000000000000000004C
:102C8800000000000000000000000000000000003C
:102C9800000000000000000000000000000000002C
:102CA800000000000000000000000000000000001C
:0400000508001CC50E
:00000001FF
