S01F000053544D3332463432395F456D7074795F50726F6A6563742E7372656323
S3150800000000000320052600087D290008832900082A
S31508000010892900088F290008952900080000000092
S315080000200000000000000000000000009B290008F6
S31508000030A929000800000000B7290008C5290008FA
S315080000405526000855260008552600085526000896
S315080000505526000855260008552600085526000886
S315080000605526000855260008552600085526000876
S315080000705526000855260008552600085526000866
S315080000805526000855260008552600085526000856
S315080000905526000855260008552600085526000846
S315080000A05526000855260008552600085526000836
S315080000B05526000855260008552600085526000826
S315080000C05526000855260008552600085526000816
S315080000D05526000855260008552600085526000806
S315080000E055260008552600085526000855260008F6
S315080000F055260008552600085526000855260008E6
S3150800010055260008552600085526000855260008D5
S315080001105526000855260008D52900085526000842
S3150800012055260008552600085526000855260008B5
S3150800013055260008552600085526000855260008A5
S315080001405526000855260008552600085526000895
S315080001505526000855260008552600085526000885
S315080001605526000855260008552600085526000875
S315080001705526000855260008552600085526000865
S315080001805526000855260008552600085526000855
S315080001905526000855260008552600085526000845
S311080001A0552600085526000855260008BC
S315080001B010B5054C237833B9044B13B10448AFF393
S315080001C000800123237010BD70000020000000008D
S315080001D0943C000808B5034B1BB103490348AFF329
S315080001E0008008BD0000000074000020943C000850
S315080001F0034613F8012B002AFBD1181A0138704759
S3150800020001F0FF01102A2BDB10F0070F08D010F8B9
S31508000210013B013A8B422DD010F0070F42B3F6D1BD
S31508000220F0B441EA012141EA014122F007047FF0D6
S3150800023000070023F0E80256083C85EA010586EA2D
S31508000240010685FA47F5A3FA87F586FA47F6A5FA69
S3150800025087F68EB9EED1F0BC01F0FF0102F0070275
S3150800026032B110F8013B013A83EA010313B1F8D120
S315080002700020704701387047002D06BF3546033801
S31508000280073815F0010F07D1013015F4807F02BF3A
S31508000290013015F4C03F0130F0BC0138704700BF8B
S315080002A053B94AB9002908BF00281CBF4FF0FF31CF
S315080002B04FF0FF3000F074B9ADF1080C6DE904CECB
S315080002C000F006F8DDF804E0DDE9022304B0704723
S315080002D02DE9F047089D04468E46002B4DD18A42EB
S315080002E0944669D9B2FA82F252B101FA02F3C2F11E
S315080002F0200120FA01F10CFA02FC41EA030E9440AF
S315080003004FEA1C48210CBEFBF8F61FFA8CF708FBCF
S3150800031016E341EA034306FB07F199420AD91CEBA7
S31508000320030306F1FF3080F01F81994240F21C81D9
S31508000330023E63445B1AA4B2B3FBF8F008FB103321
S3150800034044EA034400FB07F7A7420AD91CEB040456
S3150800035000F1FF3380F00A81A74240F20781644426
S31508000360023840EA0640E41B00261DB1D4400023AB
S31508000370C5E900433146BDE8F0878B4209D9002D0F
S3150800038000F0EF800026C5E9000130463146BDE899
S31508000390F087B3FA83F6002E4AD18B4202D3824203
S315080003A000F2F980841A61EB030301209E46002DB2
S315080003B0E0D0C5E9004EDDE702B9FFDEB2FA82F207
S315080003C0002A40F09280A1EB0C014FEA1C471FFA65
S315080003D08CFE0126200CB1FBF7F307FB131140EA4C
S315080003E001410EFB03F0884208D91CEB010103F119
S315080003F0FF3802D2884200F2CB804346091AA4B2DB
S31508000400B1FBF7F007FB101144EA01440EFB00FEAE
S31508000410A64508D91CEB040400F1FF3102D2A64513
S3150800042000F2BB800846A4EB0E0440EA03409CE7B2
S31508000430C6F12007B34022FA07FC4CEA030C20FA5F
S3150800044007F401FA06F31C43F9404FEA1C4900FA7F
S3150800045006F3B1FBF9F8200C1FFA8CFE09FB1811FC
S3150800046040EA014108FB0EF0884202FA06F20BD96F
S315080004701CEB010108F1FF3A80F08880884240F2BF
S315080004808580A8F102086144091AA4B2B1FBF9F003
S3150800049009FB101144EA014100FB0EFE8E4508D9FE
S315080004A01CEB010100F1FF346CD28E456AD9023883
S315080004B0614440EA0840A0FB0294A1EB0E01A14268
S315080004C0C846A64656D353D05DB1B3EB080261EBD6
S315080004D00E0101FA07F722FA06F3F1401F43C5E9B0
S315080004E0007100263146BDE8F087C2F12003D840E6
S315080004F00CFA02FC21FA03F3914001434FEA1C4728
S315080005001FFA8CFEB3FBF7F007FB10360B0C43EA19
S31508000510064300FB0EF69E4204FA02F408D91CEBC9
S31508000520030300F1FF382FD29E422DD902386344C7
S315080005309B1B89B2B3FBF7F607FB163341EA034167
S3150800054006FB0EF38B4208D91CEB010106F1FF38B6
S3150800055016D28B4214D9023E6144C91A46EA0046AD
S3150800056038E72E46284605E70646E3E61846F8E63F
S315080005704B45A9D2B9EB020864EB0C0E0138A3E788
S315080005804646EAE7204694E74046D1E7D0467BE769
S31508000590023B614432E7304609E76444023842E7E1
S315080005A0704700BF80B588B000AF78600B467B8087
S315080005B007F10C0300221A605A609A60DA601A6121
S315080005C07B88FB6001233B6100237B610223BB61BF
S315080005D007F10C031946786800F000FB00BF2037C6
S315080005E0BD4680BD80B58AB000AF78607B684F4A4B
S315080005F093420ED100237B624D4B1B6B4C4A43F052
S31508000600010313634A4B1B6B03F001037B627B6A8E
S3150800061087E07B68474A93420ED100233B62444BEE
S315080006201B6B434A43F002031363414B1B6B03F0F6
S3150800063002033B623B6A74E07B683F4A93420ED1F1
S315080006400023FB613A4B1B6B394A43F004031363DF
S31508000650374B1B6B03F00403FB61FB6961E07B68A6
S31508000660364A93420ED10023BB61314B1B6B304A8D
S3150800067043F0080313632E4B1B6B03F00803BB619F
S31508000680BB694EE07B682E4A93420ED100237B61FC
S31508000690274B1B6B264A43F010031363244B1B6B33
S315080006A003F010037B617B693BE07B68254A934234
S315080006B00ED100233B611E4B1B6B1D4A43F02003E2
S315080006C013631B4B1B6B03F020033B613B6928E05C
S315080006D07B681D4A93420ED10023FB60144B1B6BAB
S315080006E0134A43F040031363114B1B6B03F040039B
S315080006F0FB60FB6815E07B68144A93420ED1002321
S31508000700BB600B4B1B6B0A4A43F080031363084B11
S315080007101B6B03F08003BB60BB6802E00C4802F069
S31508000720B9FA00BF2837BD4680BD00BF00000240A9
S31508000730003802400004024000080240000C024053
S31508000740001002400014024000180240001C02403B
S31508000750AC3C000880B582B000AF78600B467B8061
S315080007607B881946786800F0E5FB00BF0837BD4668
S3150800077080BD000080B582B000AF78600A4A7B6809
S315080007801360094B01225A60074B44F61F62DA6070
S31508000790054801F0D1F80346002B01D002F046F8CF
S315080007A000BF0837BD4680BD8C00002080B500AF6D
S315080007B0024801F011F900BF80BD00BF8C0000207F
S315080007C080B483B000AF7860054B1B680133044AD8
S315080007D0136000BF0C37BD465DF8047B704700BF49
S315080007E0D400002080B400AF034B1B681846BD46F2
S315080007F05DF8047B704700BFD400002080B483B046
S3150800080000AF0346FB71FB79034A136000BF0C3740
S31508000810BD465DF8047B7047D400002080B500AF64
S31508000820114B124A1A60104B4FF4E1325A600E4BC4
S3150800083000229A600C4B0022DA600B4B00221A61E8
S31508000840094B0C225A61084B00229A61064B00227A
S31508000850DA61054801F014FB0346002B01D001F0CC
S31508000860E5FF00BF80BD00BFD80000200010014092
S315080008700FB480B596B000AF07F164037B6007F14B
S3150800088008037A68396E184602F022FA07F1080357
S315080008901846FFF7ADFC03469AB207F108014FF078
S315080008A0FF33054801F039FB00BF5837BD46BDE8A0
S315080008B0804004B0704700BFD800002080B500AF64
S315080008C00E4B1B680D4A43F4007313600B4B1B68F1
S315080008D00A4A43F480631360084B1B68074A43F4CB
S315080008E080731360032000F02BF9002000F008F84D
S315080008F001F0A2FF0023184680BD00BF003C02405D
S3150800090080B582B000AF7860124B1A68124B1B781C
S3150800091019464FF47A73B3FBF1F3B2FBF3F31846B7
S3150800092000F043F90346002B01D001230EE07B6853
S315080009300F2B0AD8002279684FF0FF3000F00BF928
S31508000940064A7B681360002300E00123184608372F
S31508000950BD4680BD080000200400002000000020DD
S3150800096080B400AF064B1B781A46064B1B68134427
S31508000970044A136000BFBD465DF8047B704700BF9C
S31508000980040000201C01002080B400AF034B1B6844
S315080009901846BD465DF8047B704700BF1C01002061
S315080009A080B485B000AF78607B6803F00703FB600E
S315080009B00C4BDB68BB60BA684FF6FF031340BB609D
S315080009C0FB681A02BB68134343F0BF6343F4003362
S315080009D0BB60044ABB68D36000BF1437BD465DF8E8
S315080009E0047B704700ED00E080B400AF044BDB6881
S315080009F01B0A03F007031846BD465DF8047B7047DB
S31508000A0000ED00E080B483B000AF0346FB7197F9B0
S31508000A100730002B0BDBFB7903F01F02074997F918
S31508000A2007305B09012000FA02F241F8232000BFD3
S31508000A300C37BD465DF8047B704700BF00E100E057
S31508000A4080B483B000AF03463960FB7197F907306D
S31508000A50002B0ADB3B68DAB20C4997F9073012011A
S31508000A60D2B20B4483F800230AE03B68DAB208499D
S31508000A70FB7903F00F03043B1201D2B20B441A763A
S31508000A8000BF0C37BD465DF8047B704700E100E007
S31508000A9000ED00E080B489B000AFF860B9607A6014
S31508000AA0FB6803F00703FB61FB69C3F10703042B2B
S31508000AB028BF0423BB61FB690433062B02D9FB69F3
S31508000AC0033B00E000237B614FF0FF32BB6902FA6B
S31508000AD003F3DA43BB681A407B699A404FF0FF314B
S31508000AE07B6901FA03F3D9437B680B401343184625
S31508000AF02437BD465DF8047B7047000080B582B098
S31508000B0000AF78607B68013BB3F1807F01D3012396
S31508000B100FE00A4A7B68013B53600F214FF0FF3014
S31508000B20FFF78EFF054B00229A60044B07221A60D6
S31508000B30002318460837BD4680BD00BF10E000E018
S31508000B4080B582B000AF78607868FFF729FF00BFEC
S31508000B500837BD4680BD80B586B000AF0346B9608C
S31508000B607A60FB7300237B61FFF73EFF78617A6842
S31508000B70B9687869FFF78EFF024697F90F30114674
S31508000B801846FFF75DFF00BF1837BD4680BD80B524
S31508000B9082B000AF0346FB7197F907301846FFF796
S31508000BA031FF00BF0837BD4680BD80B582B000AFB3
S31508000BB078607868FFF7A2FF034618460837BD46EF
S31508000BC080BD80B500AF00F002F800BF80BD80B4DC
S31508000BD000AF00BFBD465DF8047B704780B489B09E
S31508000BE000AF7860396000237B6100233B610023F6
S31508000BF0BB610023FB6177E10122FB6902FA03F37B
S31508000C007B613B681B687A6913403B613A697B697B
S31508000C109A4240F066813B685B6803F00303012B48
S31508000C2005D03B685B6803F00303022B30D17B6871
S31508000C309B68BB61FB695B00032202FA03F3DB4393
S31508000C40BA691340BB613B68DA68FB695B0002FA64
S31508000C5003F3BA691343BB617B68BA699A607B6818
S31508000C605B68BB610122FB6902FA03F3DB43BA69DD
S31508000C701340BB613B685B681B0903F00102FB6913
S31508000C8002FA03F3BA691343BB617B68BA695A600F
S31508000C903B685B6803F00303032B17D07B68DB68AC
S31508000CA0BB61FB695B00032202FA03F3DB43BA6903
S31508000CB01340BB613B689A68FB695B0002FA03F361
S31508000CC0BA691343BB617B68BA69DA603B685B68DB
S31508000CD003F00303022B23D1FB69DA087B68083289
S31508000CE053F82230BB61FB6903F007039B000F2210
S31508000CF002FA03F3DB43BA691340BB613B681A691E
S31508000D00FB6903F007039B0002FA03F3BA6913436E
S31508000D10BB61FB69DA087B680832B96943F82210B7
S31508000D207B681B68BB61FB695B00032202FA03F35D
S31508000D30DB43BA691340BB613B685B6803F0030297
S31508000D40FB695B0002FA03F3BA691343BB617B686C
S31508000D50BA691A603B685B6803F44033002B00F0FD
S31508000D60C0800023FB60664B5B6C654A43F4804396
S31508000D705364634B5B6C03F48043FB60FB68614A16
S31508000D80FB699B08023352F82330BB61FB6903F009
S31508000D9003039B000F2202FA03F3DB43BA691340ED
S31508000DA0BB617B68584A934237D07B68574A93425F
S31508000DB031D07B68564A93422BD07B68554A93427A
S31508000DC025D07B68544A93421FD07B68534A934286
S31508000DD019D07B68524A934213D07B68514A934292
S31508000DE00DD07B68504A934207D07B684F4A93429E
S31508000DF001D1092312E00A2310E008230EE0072395
S31508000E000CE006230AE0052308E0042306E0032392
S31508000E1004E0022302E0012300E00023FA6902F05D
S31508000E20030292009340BA691343BB613549FB69D3
S31508000E309B080233BA6941F823203D4B9B68BB6186
S31508000E403B69DB43BA691340BB613B685B6803F4E3
S31508000E508013002B03D0BA693B691343BB61344A3C
S31508000E60BB699360324BDB68BB613B69DB43BA699C
S31508000E701340BB613B685B6803F40013002B03D087
S31508000E80BA693B691343BB61294ABB69D360284BDE
S31508000E905B68BB613B69DB43BA691340BB613B686E
S31508000EA05B6803F40033002B03D0BA693B6913432C
S31508000EB0BB611F4ABB6953601D4B1B68BB613B691D
S31508000EC0DB43BA691340BB613B685B6803F4803354
S31508000ED0002B03D0BA693B691343BB61144ABB694B
S31508000EE01360FB690133FB61FB690F2B7FF684AE48
S31508000EF000BF00BF2437BD465DF8047B704700BFBE
S31508000F000038024000380140000002400004024058
S31508000F1000080240000C0240001002400014024083
S31508000F2000180240001C0240002002400024024033
S31508000F30003C014080B485B000AF78600B467B80EA
S31508000F407B685B69FB607A88FB6813401A04FB6858
S31508000F50D9437B880B401A437B689A6100BF1437D4
S31508000F60BD465DF8047B704780B582B000AF0023AC
S31508000F707B6000233B60204B1B6C1F4A43F0805369
S31508000F8013641D4B1B6C03F080533B603B681B4B83
S31508000F9001221A60FFF7F8FC786009E0FFF7F4FC15
S31508000FA002467B68D31AB3F57A7F01D903231FE07B
S31508000FB0134B5B6803F48033B3F5803FEED1114BD6
S31508000FC001221A60FFF7E0FC786009E0FFF7DCFC15
S31508000FD002467B68D31AB3F57A7F01D9032307E063
S31508000FE0074B5B6803F40033B3F5003FEED10023EB
S31508000FF018460837BD4680BD0038024040000E42FC
S315080010000070004044000E4280B586B000AF78609C
S315080010107B68002B01D1012367E27B681B6803F01C
S315080010200103002B75D0884B9B6803F00C03042B37
S315080010300CD0854B9B6803F00C03082B12D1824B0E
S315080010405B6803F48003B3F5800F0BD17E4B1B68F6
S3150800105003F40033002B5BD07B685B68002B57D109
S31508001060012342E27B685B68B3F5803F06D1764B85
S315080010701B68754A43F4803313601DE07B685B6820
S31508001080B3F5A02F0CD1704B1B686F4A43F480232D
S3150800109013606D4B1B686C4A43F4803313600BE096
S315080010A0694B1B68684A23F480331360664B1B68D8
S315080010B0654A23F4802313607B685B68002B13D092
S315080010C0FFF762FC386108E0FFF75EFC02463B6901
S315080010D0D31A642B01D9032307E25B4B1B6803F47D
S315080010E00033002BF0D014E0FFF74EFC386108E01F
S315080010F0FFF74AFC02463B69D31A642B01D903233E
S31508001100F3E1514B1B6803F40033002BF0D100E0E8
S3150800111000BF7B681B6803F00203002B63D04A4BB1
S315080011209B6803F00C03002B0BD0474B9B6803F01E
S315080011300C03082B1CD1444B5B6803F48003002B7B
S3150800114016D1414B1B6803F00203002B05D07B68C0
S31508001150DB68012B01D00123C7E13B4B1B6823F059
S31508001160F8027B681B69DB00374913430B603AE0DA
S315080011707B68DB68002B20D0344B01221A60FFF70E
S3150800118003FC386108E0FFF7FFFB02463B69D31A08
S31508001190022B01D90323A8E12B4B1B6803F002039A
S315080011A0002BF0D0284B1B6823F0F8027B681B69DC
S315080011B0DB00254913430B6015E0244B00221A6017
S315080011C0FFF7E2FB386108E0FFF7DEFB02463B6902
S315080011D0D31A022B01D9032387E11B4B1B6803F0A3
S315080011E00203002BF0D17B681B6803F00803002B71
S315080011F036D07B685B69002B16D0154B01221A6026
S31508001200FFF7C2FB386108E0FFF7BEFB02463B6901
S31508001210D31A022B01D9032367E10B4B5B6F03F04B
S315080012200203002BF0D01BE0094B00221A60FFF7DF
S31508001230ABFB38610EE0FFF7A7FB02463B69D31A02
S31508001240022B07D9032350E1003802400000474229
S31508001250800E4742884B5B6F03F00203002BEAD1EE
S315080012607B681B6803F00403002B00F097800023BB
S31508001270FB75814B1B6C03F08053002B0FD10023A9
S31508001280BB607D4B1B6C7C4A43F0805313647A4BDE
S315080012901B6C03F08053BB60BB680123FB75774B5F
S315080012A01B6803F48073002B18D1744B1B68734AB0
S315080012B043F480731360FFF767FB386108E0FFF7B4
S315080012C063FB02463B69D31A022B01D903230CE1BF
S315080012D06A4B1B6803F48073002BF0D07B689B680D
S315080012E0012B06D1644B1B6F634A43F00103136756
S315080012F01CE07B689B68052B0CD15F4B1B6F5E4A15
S3150800130043F0040313675C4B1B6F5B4A43F001030E
S3150800131013670BE0584B1B6F574A23F001031367FB
S31508001320554B1B6F544A23F0040313677B689B686D
S31508001330002B15D0FFF728FB38610AE0FFF724FBDE
S3150800134002463B69D31A41F28832934201D90323F4
S31508001350CBE0494B1B6F03F00203002BEED014E0E1
S31508001360FFF712FB38610AE0FFF70EFB02463B69FE
S31508001370D31A41F28832934201D90323B5E03E4B92
S315080013801B6F03F00203002BEED1FB7D012B05D169
S31508001390394B1B6C384A23F0805313647B689B696E
S315080013A0002B00F0A180344B9B6803F00C03082B3C
S315080013B05CD07B689B69022B41D1314B00221A60B5
S315080013C0FFF7E2FA386108E0FFF7DEFA02463B6902
S315080013D0D31A022B01D9032387E0274B1B6803F096
S315080013E00073002BF0D17B68DA697B681B6A1A43A5
S315080013F07B685B6A9B011A437B689B6A5B08013BB7
S315080014001B041A437B68DB6A1B061B4913434B60A4
S315080014101B4B01221A60FFF7B7FA386108E0FFF79D
S31508001420B3FA02463B69D31A022B01D903235CE0BF
S31508001430114B1B6803F00073002BF0D054E0104BDF
S3150800144000221A60FFF7A0FA386108E0FFF79CFA55
S3150800145002463B69D31A022B01D9032345E0064B02
S315080014601B6803F00073002BF0D13DE07B689B6995
S31508001470012B07D1012338E00038024000700040F4
S31508001480600047421B4B5B68FB607B689B69012BCE
S3150800149028D0FB6803F480027B68DB699A4221D175
S315080014A0FB6803F03F027B681B6A9A421AD1FA6806
S315080014B047F6C07313407A68526A9201934211D173
S315080014C0FB6803F440327B689B6A5B08013B1B049C
S315080014D09A4207D1FB6803F070627B68DB6A1B06D9
S315080014E09A4201D0012300E0002318461837BD466A
S315080014F080BD00BF0038024080B584B000AF786078
S3150800150039607B68002B01D10123CCE0684B1B684E
S3150800151003F00F033A689A420CD9654B3A68D2B27F
S315080015201A70634B1B6803F00F033A689A4201D09E
S315080015300123B8E07B681B6803F00203002B20D068
S315080015407B681B6803F00403002B05D0594B9B6886
S31508001550584A43F4E05393607B681B6803F008031A
S31508001560002B05D0534B9B68524A43F46043936063
S31508001570504B9B6823F0F0027B689B684D491343E8
S315080015808B607B681B6803F00103002B44D07B68E3
S315080015905B68012B07D1474B1B6803F40033002B0C
S315080015A019D101237FE07B685B68022B03D07B6837
S315080015B05B68032B07D13F4B1B6803F00073002BB6
S315080015C009D101236FE03B4B1B6803F00203002B94
S315080015D001D1012367E0374B9B6823F003027B6840
S315080015E05B68344913438B60FFF7CEF9F8600AE06D
S315080015F0FFF7CAF90246FB68D31A41F288329342CA
S3150800160001D903234FE02B4B9B6803F00C027B6840
S315080016105B689B009A42EBD1254B1B6803F00F03CE
S315080016203A689A420CD2224B3A68D2B21A70204BC8
S315080016301B6803F00F033A689A4201D0012332E08F
S315080016407B681B6803F00403002B08D0194B9B68C2
S3150800165023F4E0527B68DB68164913438B607B688A
S315080016601B6803F00803002B09D0124B9B6823F470
S3150800167060427B681B69DB000E4913438B6000F0F0
S3150800168021F802460B4B9B681B0903F00F030A4916
S31508001690CB5C22FA03F3094A1360094B1B68184608
S315080016A0FFF72EF9002318461037BD4680BD00BF48
S315080016B0003C024000380240DC3C000808000020DC
S315080016C0000000202DE9B04F94B000AF00237B64E2
S315080016D00023FB6400233B640023BB64794B9B68AF
S315080016E003F00C03082B0DD0082B00F2E180002B29
S315080016F002D0042B03D0DBE0734BBB64DBE0734BF7
S31508001700BB64D8E06F4B5B6803F03F037B646D4BAB
S315080017105B6803F48003002B63D06A4B5B689B0904
S315080017200022BB63FA63BB6BC3F308033B63002366
S315080017307B63D7E90C4522462B464FF000004FF055
S315080017400001590141EAD261500102460B46214681
S31508001750511A3961294663EB01037B614FF0000298
S315080017604FF00003D7E904AB59468B01514643EACB
S31508001770916351468A015146B2EB0108594663EB1B
S3150800178001094FF000024FF000034FEAC90343EA8C
S3150800179058734FEAC80290469946234618EB030346
S315080017A0BB602B4649EB0303FB604FF000024FF08A
S315080017B00003D7E9024529464B02214643EAD1539D
S315080017C021464A02104619467B6C0022BB62FA6221
S315080017D0D7E90A23FEF764FD02460B461346FB6467
S315080017E058E0384B5B689B09002218461146C0F33F
S315080017F008033B6200237B62D7E9088942464B46C9
S315080018004FF000004FF00001590141EAD261500142
S3150800181002460B464146B2EB010A494663EB010B09
S315080018204FF000024FF000034FEA8B1343EA9A6326
S315080018304FEA8A12B2EB0A0463EB0B054FF000027B
S315080018404FF00003EB0043EA5473E20014461D46CA
S315080018504346E3183B604B4645EB03037B604FF07A
S3150800186000024FF00003D7E9004529468B022146BE
S3150800187043EA915321468A02104619467B6C002298
S31508001880BB61FA61D7E90623FEF70AFD02460B4655
S315080018901346FB640B4B5B681B0C03F00303013315
S315080018A05B003B64FA6C3B6CB2FBF3F3BB6402E08F
S315080018B0054BBB6400BFBB6C18465037BD46BDE838
S315080018C0B08F00BF003802400024F40000127A00EE
S315080018D080B400AF034B1B681846BD465DF8047B11
S315080018E0704700BF0800002080B500AFFFF7F0FF83
S315080018F00246054B9B689B0A03F007030349CB5C2A
S3150800190022FA03F3184680BD00380240EC3C000872
S3150800191080B500AFFFF7DCFF0246054B9B685B0B03
S3150800192003F007030349CB5C22FA03F3184680BD8C
S3150800193000380240EC3C000880B582B000AF786001
S315080019407B68002B01D1012341E07B6893F83D3089
S31508001950DBB2002B06D17B68002283F83C2078682E
S3150800196000F0A4FF7B68022283F83D207B681A6892
S315080019707B6804331946104600F0CEF97B680122CD
S3150800198083F846207B68012283F83E207B68012283
S3150800199083F83F207B68012283F840207B68012278
S315080019A083F841207B68012283F842207B68012264
S315080019B083F843207B68012283F844207B68012250
S315080019C083F845207B68012283F83D2000231846CA
S315080019D00837BD4680BD000080B485B000AF78608A
S315080019E07B6893F83D30DBB2012B01D001234EE032
S315080019F07B68022283F83D207B681B68DA687B686F
S31508001A001B6842F00102DA607B681B68234A93422E
S31508001A1022D07B681B68B3F1804F1DD07B681B689A
S31508001A201F4A934218D07B681B681E4A934213D0FC
S31508001A307B681B681C4A93420ED07B681B681B4A4E
S31508001A40934209D07B681B68194A934204D07B6885
S31508001A501B68184A934211D17B681B689B6803F080
S31508001A600703FB60FB68062B10D07B681B681A68A7
S31508001A707B681B6842F001021A6007E07B681B68F6
S31508001A801A687B681B6842F001021A600023184630
S31508001A901437BD465DF8047B704700BF000001405F
S31508001AA00004004000080040000C0040000401400B
S31508001AB0004001400018004080B582B000AF786051
S31508001AC07B681B681B6903F00203022B22D17B6823
S31508001AD01B68DB6803F00203022B1BD17B681B68BB
S31508001AE06FF002021A617B6801221A777B681B680D
S31508001AF09B6903F00303002B03D0786800F0EEF827
S31508001B0005E0786800F0E0F8786800F0F1F87B689E
S31508001B1000221A777B681B681B6903F00403042BF1
S31508001B2022D17B681B68DB6803F00403042B1BD1F6
S31508001B307B681B686FF004021A617B6802221A77B9
S31508001B407B681B689B6903F44073002B03D0786895
S31508001B5000F0C4F805E0786800F0B6F8786800F098
S31508001B60C7F87B6800221A777B681B681B6903F035
S31508001B700803082B22D17B681B68DB6803F008037F
S31508001B80082B1BD17B681B686FF008021A617B68FB
S31508001B9004221A777B681B68DB6903F00303002BB2
S31508001BA003D0786800F09AF805E0786800F08CF8B9
S31508001BB0786800F09DF87B6800221A777B681B68B6
S31508001BC01B6903F01003102B22D17B681B68DB68A6
S31508001BD003F01003102B1BD17B681B686FF01002F3
S31508001BE01A617B6808221A777B681B68DB6903F42D
S31508001BF04073002B03D0786800F070F805E0786829
S31508001C0000F062F8786800F073F87B6800221A77AB
S31508001C107B681B681B6903F00103012B0ED17B68E7
S31508001C201B68DB6803F00103012B07D17B681B687F
S31508001C306FF001021A617868FEF7C2FD7B681B68BF
S31508001C401B6903F08003802B0ED17B681B68DB6859
S31508001C5003F08003802B07D17B681B686FF0800236
S31508001C601A61786800F002F97B681B681B6903F043
S31508001C704003402B0ED17B681B68DB6803F04003EA
S31508001C80402B07D17B681B686FF040021A617868A1
S31508001C9000F038F87B681B681B6903F02003202BCB
S31508001CA00ED17B681B68DB6803F02003202B07D165
S31508001CB07B681B686FF020021A61786800F0CCF820
S31508001CC000BF0837BD4680BD80B483B000AF7860DA
S31508001CD000BF0C37BD465DF8047B704780B483B0FF
S31508001CE000AF786000BF0C37BD465DF8047B7047CF
S31508001CF080B483B000AF786000BF0C37BD465DF88E
S31508001D00047B704780B483B000AF786000BF0C379F
S31508001D10BD465DF8047B704780B485B000AF786037
S31508001D2039607B681B68FB607B68404A934213D026
S31508001D307B68B3F1804F0FD07B683D4A93420BD046
S31508001D407B683C4A934207D07B683B4A934203D060
S31508001D507B683A4A934208D1FB6823F07003FB601C
S31508001D603B685B68FA681343FB607B682F4A9342BB
S31508001D702BD07B68B3F1804F27D07B682C4A9342DF
S31508001D8023D07B682B4A93421FD07B682A4A93420A
S31508001D901BD07B68294A934217D07B68284A93420E
S31508001DA013D07B68274A93420FD07B68264A934212
S31508001DB00BD07B68254A934207D07B68244A934216
S31508001DC003D07B68234A934208D1FB6823F4407307
S31508001DD0FB603B68DB68FA681343FB60FB6823F02B
S31508001DE080023B685B691343FB607B68FA681A608C
S31508001DF03B689A687B68DA623B681A687B689A620D
S31508001E007B680A4A934203D07B680C4A934203D103
S31508001E103B681A697B681A637B6801225A6100BFAE
S31508001E201437BD465DF8047B704700BF00000140CB
S31508001E300004004000080040000C00400004014077
S31508001E40004001400044014000480140001800409D
S31508001E50001C00400020004080B483B000AF7860CA
S31508001E6000BF0C37BD465DF8047B704780B483B06D
S31508001E7000AF786000BF0C37BD465DF8047B70473D
S31508001E8080B582B000AF78607B68002B01D1012352
S31508001E903FE07B6893F83D30DBB2002B06D17B68C8
S31508001EA0002283F83C20786800F020FD7B68242215
S31508001EB083F83D207B681B68DA687B681B6822F418
S31508001EC00052DA60786800F029F97B681B681A699D
S31508001ED07B681B6822F490421A617B681B685A6902
S31508001EE07B681B6822F02A025A617B681B68DA68DD
S31508001EF07B681B6842F40052DA607B6800221A6429
S31508001F007B68202283F83D207B68202283F83E20C8
S31508001F10002318460837BD4680BD80B58AB002AF93
S31508001F20F860B9603B601346FB8000237B61FB6861
S31508001F3093F83D30DBB2202B7CD1BB68002B02D056
S31508001F40FB88002B01D1012375E0FB6893F83C3030
S31508001F50012B01D102236EE0FB68012283F83C20A5
S31508001F60FB6800221A64FB68212283F83D20FEF7ED
S31508001F700BFD7861FB68FA889A84FB68FA88DA842C
S31508001F80FB689B68B3F5805F08D1FB681B69002B6B
S31508001F9004D10023FB61BB68BB6103E0BB68FB613E
S31508001FA00023BB61FB68002283F83C202AE03B68DB
S31508001FB000937B6900228021F86800F040F8034608
S31508001FC0002B01D0032336E0FB69002B0BD1BB693C
S31508001FD01B881A46FB681B68C2F308025A60BB696D
S31508001FE00233BB6107E0FB691A78FB681B685A6015
S31508001FF0FB690133FB61FB68DB8C9BB2013B9AB240
S31508002000FB68DA84FB68DB8C9BB2002BCFD13B687C
S3150800201000937B6900224021F86800F010F8034617
S31508002020002B01D0032306E0FB68202283F83D201D
S31508002030002300E0022318462037BD4680BD80B540
S3150800204090B000AFF860B9603B601346FB7150E092
S31508002050BB6CB3F1FF3F4CD0BB6C002B07D0FEF72F
S3150800206093FC02463B68D31ABA6C9A4241D2FB6883
S315080020701B680C33BB62BB6A53E8003F7B627B6A12
S3150800208023F4D073FB63FB681B680C33FA6B7A6323
S315080020903B63396B7A6B41E80023FB62FB6A002BD2
S315080020A0E5D1FB681B6814337B617B6953E8003F05
S315080020B03B613B6923F00103BB63FB681B68143370
S315080020C0BA6B3A62FB61F9693A6A41E80023BB6177
S315080020D0BB69002BE5D1FB68202283F83D20FB680D
S315080020E0202283F83E20FB68002283F83C20032345
S315080020F00FE0FB681B681A68BB681340BA689A4207
S315080021000CBF01230023DBB21A46FB799A429FD003
S31508002110002318464037BD4680BD00002DE9B04F64
S31508002120C0B000AFC7F8F400D7F8F4301B681B69D5
S3150800213023F44050D7F8F430D968D7F8F4301A6841
S3150800214040EA01031361D7F8F4309A68D7F8F430F7
S315080021501B691A43D7F8F4305B691A43D7F8F43089
S31508002160DB691343C7F8F830D7F8F4301B68DB6827
S3150800217023F4164121F00C01D7F8F4301A68D7F881
S31508002180F8300B43D360D7F8F4301B685B6923F447
S315080021904070D7F8F4309969D7F8F4301A6840EAED
S315080021A001035361D7F8F4301A688F4B9A4205D069
S315080021B0D7F8F4301A688D4B9A4204D1FFF7A8FB7A
S315080021C0C7F8FC0003E0FFF78FFBC7F8FC00D7F859
S315080021D0F430DB69B3F5004F40F00C81D7F8FC30DA
S315080021E00022C7F8E830C7F8EC20D7E93A45224676
S315080021F02B469118B9655B41FB65D7E9162321463D
S3150800220012EB0108294643EB01094FF000024FF093
S3150800221000034FEAC90343EA58734FEAC8029046D7
S315080022209946234618EB0303C7F8E0302B4649EBDB
S315080022300303C7F8E430D7F8F4305B680022C7F820
S31508002240D830C7F8DC20D7E936120B46DB183B65D1
S31508002250134642EB03037B65D7E91423D7E9380114
S31508002260FEF71EF802460B46614BA3FB02235B09E9
S315080022701C01D7F8FC300022C7F8D030C7F8D420A4
S31508002280D7E9348942464B469118B9645B41FB64E9
S31508002290D7E91223414612EB010A494643EB010BE3
S315080022A04FF000024FF000034FEACB0343EA5A739C
S315080022B04FEACA0292469B4643461AEB0303C7F8FF
S315080022C0C8304B464BEB0303C7F8CC30D7F8F4308D
S315080022D05B680022C7F8C030C7F8C420D7E93012B7
S315080022E00B46DB183B64134642EB03037B64D7E9D2
S315080022F01023D7E93201FDF7D3FF02460B461146F4
S315080023003B4BA3FB01235B09642202FB03F3CB1AB5
S31508002310DB0003F13202364BA3FB02235B095B00A9
S3150800232003F4F8731C44D7F8FC300022C7F8B83019
S31508002330C7F8BC20D7E92E8942464B469118B9639F
S315080023405B41FB63D7E90E23414651183963494679
S315080023504B417B634FF000024FF00003D7E90CAB0B
S315080023605946CB00514643EA51735146CA001046B6
S315080023701946034642469B18C7F8B0304B460A46EC
S3150800238042EB0303C7F8B430D7F8F4305B68002291
S31508002390C7F8A830C7F8AC20D7E92A120B46DB18CD
S315080023A0BB62134642EB0303FB62D7E90A23D7E96C
S315080023B02C01FDF775FF02460B460D4BA3FB0213D6
S315080023C05B09642101FB03F3D31ADB003233084AA5
S315080023D0A2FB03235B0903F00702D7F8F4301B6856
S315080023E022449A6005E100BF001001400014014034
S315080023F01F85EB51D7F8FC300022C7F8A030C7F884
S31508002400A420D7E9288942464B46911839625B4190
S315080024107B62D7E9082341465418494643EB010530
S315080024204FF000024FF00003EB0043EA5473E2005A
S3150800243014461D464346E318C7F898304B4645EB05
S315080024400303C7F89C30D7F8F4305B680022C7F856
S315080024509030C7F894204FF000024FF00003D7E9F8
S31508002460244529468B00214643EA917321468A0072
S31508002470D7E92601FDF714FF02460B46604BA3FB7E
S3150800248002235B091C01D7F8FC300022C7F8883004
S31508002490C7F88C20D7E9228942464B469118B9617C
S315080024A05B41FB61D7E90623414651183961494624
S315080024B04B417B614FF000024FF00003D7E904ABB4
S315080024C05946CB00514643EA51735146CA00104655
S315080024D01946034642469B18C7F880304B460A46BB
S315080024E042EB0303C7F88430D7F8F4305B68002260
S315080024F0BB67FA674FF000024FF00003D7E91E8961
S3150800250049468B00414643EA917341468A00D7E91A
S315080025102001FDF7C5FE02460B46394BA3FB021305
S315080025205B09642101FB03F3D31A1B013233344AD6
S31508002530A2FB03235B0903F0F0031C44D7F8FC3025
S3150800254000223B677A67D7E91C8942464B469118B1
S31508002550B9605B41FB60D7E90223414651183960EF
S3150800256049464B417B604FF000024FF00003D7E924
S3150800257000AB5946CB00514643EA51735146CA004F
S3150800258010461946034642469B18BB664B460A4602
S3150800259042EB0303FB66D7F8F4305B6800223B6620
S315080025A07A664FF000024FF00003D7E918894946CA
S315080025B08B00414643EA917341468A00D7E91A01DE
S315080025C0FDF76EFE02460B460D4BA3FB02135B0995
S315080025D0642101FB03F3D31A1B013233084AA2FB19
S315080025E003235B0903F00F02D7F8F4301B68224473
S315080025F09A6000BF07F58077BD46BDE8B08F00BF7B
S315080026001F85EB510D48854600F092FA0C480D4996
S315080026100D4A002302E0D458C4500433C4188C422F
S31508002620F9D30A4A0A4C002301E013600432A24295
S31508002630FBD300F095FA00F00FF8FEE70000032040
S3150800264000000020700000209C3D0008700000205B
S3150800265044010020FEE7000080B500AFFEF72EF922
S3150800266000F074F83248FDF7BDFF3248FEF782F8ED
S31508002670FEF7D4F84FF480412D48FDF793FF4FF449
S3150800268000512B48FDF78EFFFEF790F8FEF7AAF8E3
S315080026900346002BFAD0FEF7A5F80246264B1B6820
S315080026A01344254A1360FEF79DF80246234B1B6820
S315080026B01344224A1360FEF795F80246204B1B681E
S315080026C013441F4A13600020FEF798F81A4B1B683C
S315080026D0632B07D9184B00221A604FF4005114488F
S315080026E0FEF738F8154B1B68632B07D9134B0022E6
S315080026F01A604FF480410E48FEF72CF8104B1B6801
S31508002700092BC3D90E4B00221A600E4B1B685A1CA4
S315080027100C490A6019460C48FEF7AAF8094B1B68CB
S315080027204FF6FF729342B1D1064B00221A60ADE70D
S31508002730001802400010004020010020240100205B
S31508002740280100202C010020C03C000880B594B068
S3150800275000AF07F1200330220021184600F024FAC2
S3150800276007F10C0300221A605A609A60DA601A614F
S315080027700023BB602B4B1B6C2A4A43F0805313641F
S31508002780284B1B6C03F08053BB60BB6800237B603F
S31508002790254B1B68244A43F440431360224B1B68AD
S315080027A003F440437B607B6801233B624FF480332C
S315080027B07B620223BB634FF48003FB6304233B6401
S315080027C050237B640223BB640723FB6407F12003C1
S315080027D01846FEF719FC0346002B01D000F026F830
S315080027E0FEF7C2FB0346002B01D000F01FF80F23AB
S315080027F0FB6002233B6100237B614FF4A053BB615E
S315080028004FF48053FB6107F10C0305211846FEF7C8
S3150800281073FE0346002B01D000F008F800BF5037BE
S31508002820BD4680BD003802400070004080B400AF4D
S3150800283072B600BFFEE7000080B582B000AF002385
S315080028407B60194B5B6C184A43F480435364164B00
S315080028505B6C03F480437B607B6800233B60124B10
S315080028601B6C114A43F0805313640F4B1B6C03F027
S3150800287080533B603B680720FEF762F9002200217F
S315080028806FF00B00FEF767F9002200216FF00A00CF
S31508002890FEF761F9002200216FF00900FEF75BF9E7
S315080028A000BF0837BD4680BD0038024080B584B0F9
S315080028B000AF78600023FB600B4B1B6C0A4A43F0A1
S315080028C010031364084B1B6C03F01003FB60FB68D2
S315080028D03620FEF75CF900220F213620FEF73BF979
S315080028E000BF1037BD4680BD0038024080B58AB0AB
S315080028F000AF786007F1140300221A605A609A60E4
S31508002900DA601A617B681B68194A93422CD1002346
S315080029103B61184B5B6C174A43F010035364154B25
S315080029205B6C03F010033B613B690023FB60114BB2
S315080029301B6B104A43F0010313630E4B1B6B03F02A
S315080029400103FB60FB684FF4C0637B610223BB6134
S315080029500023FB6103233B6207237B6207F1140311
S3150800296019460548FEF73AF900BF2837BD4680BD27
S3150800297000100140003802400000024080B400AF59
S31508002980FEE780B400AFFEE780B400AFFEE780B490
S3150800299000AFFEE780B400AFFEE780B400AF00BF2B
S315080029A0BD465DF8047B704780B400AF00BFBD46E6
S315080029B05DF8047B704780B400AF00BFBD465DF884
S315080029C0047B704780B500AFFDF7CAFFFEF7F9F83C
S315080029D000BF80BD80B500AF0248FFF76DF800BFA5
S315080029E080BD00BF8C00002080B586B000AFF860BF
S315080029F0B9607A6000237B610AE0AFF30080014684
S31508002A00BB685A1CBA60CAB21A707B6901337B610B
S31508002A107A697B689A42F0DB7B6818461837BD46A8
S31508002A2080BD80B586B000AFF860B9607A600023D3
S31508002A307B6109E0BB685A1CBA601B781846AFF37D
S31508002A4000807B6901337B617A697B689A42F1DB96
S31508002A507B6818461837BD4680BD80B483B000AF82
S31508002A6078604FF0FF3318460C37BD465DF8047B97
S31508002A70704780B483B000AF786039603B684FF424
S31508002A8000525A60002318460C37BD465DF8047B91
S31508002A90704780B483B000AF7860012318460C37BE
S31508002AA0BD465DF8047B704780B485B000AFF8601A
S31508002AB0B9607A60002318461437BD465DF8047B72
S31508002AC07047000080B586B000AF7860144A154B91
S31508002AD0D31A7B617B693B61134B1B68002B02D1C0
S31508002AE0114B124A1A60104B1A687B6813443A69EC
S31508002AF09A4207D200F02EF803460C221A604FF0CD
S31508002B00FF3309E0084B1B68FB60074B1A687B68B4
S31508002B101344054A1360FB6818461837BD4680BD3E
S31508002B2000000320000400003001002048010020B6
S31508002B3080B400AF064BD3F88830054A43F47003D7
S31508002B40C2F8883000BFBD465DF8047B704700BFF9
S31508002B5000ED00E0014B1868704700BF0C0000202C
S31508002B6070B50D4D0D4C641BA4100026A64209D164
S31508002B700B4D0C4C01F08EF8641BA4100026A642DF
S31508002B8005D170BD55F8043B98470136EEE755F870
S31508002B90043B98470136F2E7943D0008943D000847
S31508002BA0943D0008983D000802440346934200D12C
S31508002BB0704703F8011BF9E770B50E46054618B1CC
S31508002BC083690BB900F068FAAB69AC6813B9284693
S31508002BD000F062FA2C4B9C4220D16C68636EDB07CE
S31508002BE005D4A389980502D4A06D00F0F3FAA38949
S31508002BF019071DD52369DBB1013EA36816F8011F25
S31508002C00013BA36039BB002B38DA22460A21284645
S31508002C1000F068F8013011D00A2511E01B4B9C42E0
S31508002C2001D1AC68DAE71A4B9C4208BFEC68D5E7D5
S31508002C302146284600F0A8F80028DDD04FF0FF35D9
S31508002C40636EDA0705D4A3899B0502D4A06D00F04C
S31508002C50C2FA284670BD002B04DAA2699A4206DC3D
S31508002C600A2904D023685A1C22601970C5E722462F
S31508002C70284600F037F80130BFD1DFE723680A2578
S31508002C805A1C22601D70DBE7183D0008383D000815
S31508002C90F83C0008024B01461868FFF78DBF00BFD5
S31508002CA00C00002000B59BB0009104916FF0004124
S31508002CB00591029105490391694600F02FFC009B96
S31508002CC000221A701BB05DF804FB00BF0802FFFF64
S31508002CD013460A46014602480068FFF7E3BF00BFED
S31508002CE00C000020F8B50E461446054618B183694F
S31508002CF00BB900F0D1F9214B9C422BD16C68A36922
S31508002D00A360A3891A072FD523696BB323692068A3
S31508002D10C01A6369F6B28342374604DC2146284660
S31508002D2000F026F930BBA368013BA36023685A1C50
S31508002D3022601E7063690130834204D0A389DB07D1
S31508002D4006D50A2E04D12146284600F011F988B97D
S31508002D503846F8BD0A4B9C4201D1AC68CFE7094B0F
S31508002D609C4208BFEC68CAE72146284600F00CF8E2
S31508002D700028CBD04FF0FF37EAE700BF183D000820
S31508002D80383D0008F83C0008324B70B51D68064609
S31508002D900C4625B1AB6913B9284600F07DF92E4BD0
S31508002DA09C420FD16C68A389B4F90C2019072CD45E
S31508002DB0DD0611D40923336042F04003A3814FF0A6
S31508002DC0FF303EE0254B9C4201D1AC68EBE7244B33
S31508002DD09C4208BFEC68E6E7580712D5616B41B11B
S31508002DE004F14403994202D0304600F05BFA00230E
S31508002DF06363A38923F02403A38100236360236903
S31508002E002360A38943F00803A38123694BB9A389E7
S31508002E1003F42073B3F5007F03D02146304600F053
S31508002E2001FAA089B4F90C2010F001030AD0002396
S31508002E30A36063695B42A361236943B910F080000C
S31508002E40BAD170BD810758BF6369A360F4E7002053
S31508002E50F7E700BF0C000020183D0008383D0008C1
S31508002E60F83C00088A892DE9F041054610070C460A
S31508002E7058D44B68002B05DC0B6C002B02DC0020B9
S31508002E80BDE8F081E66A002EF9D0002312F48052DC
S31508002E902F682B6032D0606DA3895A0705D5636801
S31508002EA0C01A636B0BB1236CC01A00230246E66A8C
S31508002EB0216A2846B047431CA38906D129681D29DB
S31508002EC02CD82A4ACA40D60728D500226260D904D7
S31508002ED02269226004D5421C01D12B6803B96065BA
S31508002EE0616B2F600029CAD004F14403994202D0CD
S31508002EF0284600F0D7F900206063C1E7216A01235C
S31508002F002846B047411CC7D12B68002BC4D01D2BBF
S31508002F1001D0162B01D12F60B1E7A38943F04003F6
S31508002F20A381ADE70F69002FA9D093070E6808BFE4
S31508002F304B690F6018BF0023A6EB07088B60B8F132
S31508002F40000F9CDD216AA66A43463A462846B047E2
S31508002F50002806DCA38943F04003A3814FF0FF3025
S31508002F608EE70744A8EB0008E9E700BF0100402008
S31508002F7038B50B6905460C4613B90025284638BDF1
S31508002F8018B183690BB900F087F8144B9C421BD122
S31508002F906C68B4F90C30002BEFD0626ED00704D4FD
S31508002FA0990502D4A06D00F015F928462146FFF7C9
S31508002FB059FF636EDA070546E0D4A3899B05DDD47D
S31508002FC0A06D00F008F9D9E7054B9C4201D1AC6821
S31508002FD0DFE7044B9C4208BFEC68DAE7183D0008B7
S31508002FE0383D0008F83C0008002310B50446C0E93F
S31508002FF00033C0E90433836081814366C2818361FB
S31508003000194608225C30FFF7CFFD054B6362054B76
S31508003010A362054BE362054B2462236310BD00BF20
S31508003020653A0008873A0008BF3A0008E33A0008FC
S31508003030014900F0AFB800BF712F000870B56822CB
S315080030404D1E55430E4605F1740100F097F90446E6
S3150800305040B10021C0E900160C30A06005F16802F5
S31508003060FFF7A2FD204670BD014800F0B3B800BFC7
S3150800307035010020014800F0AEB800BF3501002038
S31508003080014800F0A7B800BF36010020014800F04B
S31508003090A2B800BF3601002010B50446FFF7F0FFBE
S315080030A0A3691BB1BDE81040FFF7F0BFC4E91233AE
S315080030B02365134B134A1B68A262A34204BF01236C
S315080030C0A361204600F020F86060204600F01CF856
S315080030D0A060204600F018F80022E060042160682D
S315080030E0FFF782FFA06801220921FFF77DFFE0684C
S315080030F002221221FFF778FF0123A361D2E700BF5E
S31508003100F43C000831300008F8B50746FFF7ACFF75
S315080031101E4B1E68B36913B93046FFF7BDFF483624
S31508003120D6E90134013B03D533680BB33668F7E7B4
S31508003130B4F90C50D5B9164BE36004F1580065662E
S3150800314000F047F8FFF796FFC4E90155C4E90455AE
S315080031502560A5610822294604F15C00FFF724FDD5
S31508003160C4E90D55C4E912552046F8BD6834D9E7B7
S3150800317004213846FFF762FF044630600028D5D19F
S31508003180FFF778FF0C233B60EEE700BFF43C00082E
S315080031900100FFFF2DE9F8430646884600F148047A
S315080031A00027D4E90195B9F1010905D52468002C51
S315080031B0F7D13846BDE8F883AB89012B07D9B5F9AD
S315080031C00E30013303D029463046C04707436835D9
S315080031D0E9E770477047704770B50E46B1F90E10AB
S315080031E0002996B014461D4608DAB6F90C300022B6
S315080031F02A601A0610D44FF480630EE06A4600F07F
S3150800320097FC0028F1DB019A02F47042A2F50053FC
S315080032105A425A412A60EEE740230020236016B03E
S3150800322070BD00008B8973B59D0706460C4607D509
S3150800323004F14703236023610123636102B070BD73
S3150800324001AB6A46FFF7C8FF00990546304600F00D
S3150800325095F848B9B4F90C309A05EFD423F003036E
S3150800326043F00203A381E3E70D4BB362A389206011
S3150800327043F08003A381009B6361019B20615BB1DE
S31508003280B4F90E10304600F065FC28B1A38923F086
S31508003290030343F00103A381A0890543A581CDE774
S315080032A03130000837B5002944D051F8043C019064
S315080032B0002BA1F10404B8BFE41800F095FC1E4ADF
S315080032C00198136833B96360146003B0BDE83040F1
S315080032D000F090BCA34208D9256861198B4201BF4A
S315080032E019685B6849192160EDE71A465B680BB1F6
S315080032F0A342FAD911685518A5420BD1246821446E
S315080033005418A3421160E0D11C685B6853602144DD
S315080033101160DAE702D90C230360D6E7256861193C
S315080033208B4204BF19685B68636004BF4919216052
S315080033305460CAE703B030BD3801002070B50E4EA0
S315080033400C463168054611B900F07CFB3060214611
S31508003350284600F077FB431C0AD0C41C24F003045B
S31508003360A04207D0211A284600F06CFB013001D193
S315080033704FF0FF34204670BD3C0100202DE9F04196
S31508003380CD1C25F0030508350C2D38BF0C25002D5E
S31508003390074601DBA94205D90C233B6000263046C7
S315080033A0BDE8F0812E4E00F01FFC33681C4634BB86
S315080033B029463846FFF7C2FF431C04464DD13468F8
S315080033C02646002E40D123683146384604EB0308CA
S315080033D000F038FB80453AD1216803356D1A25F08F
S315080033E0030508350C2D38BF0C2529463846FFF746
S315080033F0A5FF01302BD023682B4423600EE02268FA
S31508003400521B1ED40B2A16D96119A342256018BF70
S315080034105960636808BF316062514B60384604F1F1
S315080034200B0600F0E7FB26F00706231DF21AB6D0B6
S315080034309B1BA350B3E76268A3420CBF32605A6075
S31508003440ECE723466468B2E734467668B9E70C23A6
S315080034503B60384600F0CEFBA1E72560DEE700BFFB
S31508003460380100202DE9F0478E689E4282460C46B8
S3150800347090461F4638D88A8912F4906F32D025684C
S315080034800969A5EB0109656905EB450505EBD575E0
S3150800349001334B446D109D4238BF1D46530531D547
S315080034A02946FFF76BFF064650B90C23CAF80030C9
S315080034B0A38943F04003A3814FF0FF30BDE8F087AE
S315080034C021694A4600F068FBA38923F4906343F018
S315080034D08003A381266165614E44A5EB0905266034
S315080034E0A5603E46BE4200D93E4620683246414661
S315080034F000F060FBA3689B1BA3602368334423602A
S315080035000020DBE72A4600F07BFB06460028E1D1CF
S3150800351021695046FFF7C6FEC7E700002DE9F04FC0
S3150800352098468B891B069DB007460D4614460ED550
S315080035300B6963B94021FFF721FF2860286120B98C
S315080035400C233B604FF0FF30D1E040236B61002332
S31508003550099320238DF82930CDF80C803023DFF825
S31508003560A8818DF82A304FF0010923469A4613F8A8
S31508003570012B0AB1252AF9D1BAEB040B0BD05B460D
S31508003580224629463846FFF76DFF013000F0AA802B
S31508003590099A5A4409929AF80030002B00F0A28042
S315080035A000234FF0FF32CDE905230AF1010A0493FF
S315080035B007938DF853301A935446052214F8011BC5
S315080035C05148FCF71DFE049AD8B9D00644BF2023FB
S315080035D08DF85330110744BF2B238DF853309AF8D2
S315080035E000302A2B15D0079A544600204FF00A0CB3
S315080035F0214611F8013B303B092B4ED9B0B1079251
S3150800360014E0A0EB080309FA03F313430493A24654
S31508003610D2E7039B191D1B680391002BBBBF5B42B6
S3150800362042F0020207930793B8BF049223782E2B21
S315080036300CD163782A2B35D1039B1A1D1B6803927C
S31508003640002BB8BF4FF0FF3302340593DFF8C8A04C
S31508003650217803225046FCF7D3FD40B14023A0EB66
S315080036600A0003FA00F0049B03430134049314F898
S31508003670011B26488DF828100622FCF7C1FD0028F4
S3150800368038D0234B1BBB039B073323F007030833B0
S315080036900393099B3344099367E70CFB02320C46F4
S315080036A00120A5E700230134059319464FF00A0CBB
S315080036B0204610F8012B303A092A03D9002BC5D029
S315080036C00591C3E70CFB012104460123F0E703AB90
S315080036D000932A460F4B04A93846AFF30080421CD4
S315080036E00646D6D1AB895B063FF52CAF09981DB0C7
S315080036F0BDE8F08F03AB00932A46064B04A938466B
S3150800370000F07AF8EBE700BF583D0008623D000874
S3150800371000000000653400085E3D00082DE9F0470A
S31508003720164699468A680B69DDF820809342B8BF29
S315080037301346336091F8432007460C460AB1013315
S3150800374033602368990642BF3368023333602568BD
S3150800375015F0060506D104F1190AE36832689B1AC2
S31508003760AB4226DC94F84320131E226818BF0123B7
S3150800377092062BD404F1430249463846C047013025
S315080037801ED02368E568326803F00603042B08BFD9
S31508003790AD1AA36822690CBF25EAE5750025934290
S315080037A0C4BF9B1AED1800261A34B5421AD1002058
S315080037B008E00123524649463846C047013003D13E
S315080037C04FF0FF30BDE8F0870135C6E7E1185A1C0F
S315080037D0302081F84300224494F8451082F84310BB
S315080037E00233C7E70123224649463846C047013017
S315080037F0E6D00136D9E700002DE9FF470F7E0C9D7C
S31508003800782F914680460C469A4601F1430207D81E
S31508003810622F0AD8002F00F0D880582F00F0A38016
S3150800382004F1420584F842703AE0A7F16303152BC8
S31508003830F6D801A151F823F091380008A5380008F8
S3150800384021380008213800082138000821380008E6
S31508003850A538000821380008213800082138000852
S3150800386021380008B1390008D5380008933900080E
S315080038702138000821380008D33900082138000803
S31508003880D538000821380008213800089B39000877
S315080038902B681A1D1B682A6004F1420584F8423019
S315080038A00123A3E020682968060601F104030AD566
S315080038B00E682B60002E03DA2D23764284F84330F7
S315080038C05E480A2319E00E682B6010F0400F18BFF7
S315080038D036B2EFE72B682068191D2960010601D565
S315080038E01E6802E04606FBD51E8854486F2F0CBF9B
S315080038F008230A23002184F843106568A560002D73
S31508003900A2BF216821F0040121600EB9002D4DD017
S315080039101546B6FBF3F103FB1167C75D05F8017D94
S315080039203746BB420E46F4D9082B0BD12368DE076F
S3150800393008D5236961689942DEBF302305F8013C42
S3150800394005F1FF35521B2261CDF800A04B4603AAAC
S3150800395021464046FFF7E2FE01304CD14FF0FF30DA
S3150800396004B0BDE8F087354881F8457029682368B2
S3150800397051F8046B29601D0614D5DF0744BF43F0D0
S31508003980200323601EB9236823F020032360102335
S31508003990B0E7236843F0200323607823284884F897
S315080039A04530E3E7590648BFB6B2E6E71546BBE732
S315080039B02B6826686169181D286035061B6801D5BD
S315080039C0196002E07006FBD51980002323611546AD
S315080039D0BAE72B681A1D2A601D6862680021284606
S315080039E0FCF70EFC08B1401B606063682361002386
S315080039F084F84330A8E723692A4649464046D04713
S31508003A000130ABD023689B0713D4E068039B984228
S31508003A10B8BF1846A4E70123324649464046D04770
S31508003A2001309BD00135E36803995B1AAB42F2DC9F
S31508003A30EBE7002504F11906F5E700BF693D000824
S31508003A407A3D000838B5064D0023044608462B6023
S31508003A50FFF738F8431C02D12B6803B1236038BD41
S31508003A604001002010B50C46B1F90E1000F0F8F828
S31508003A700028ABBF636DA3891B1823F48053ACBF22
S31508003A806365A38110BD2DE9F0411F468B89DB05CF
S31508003A9005460C46164605D5B1F90E100223002236
S31508003AA000F068F8A389B4F90E1023F48053A381B3
S31508003AB032463B462846BDE8F04100F017B810B537
S31508003AC00C46B1F90E1000F055F8431CA38915BF32
S31508003AD0606523F4805343F48053A38118BFA38100
S31508003AE010BDB1F90E1000F013B8000038B5074D37
S31508003AF004460846114600222A601A46FEF791FF38
S31508003B00431C02D12B6803B1236038BD4001002055
S31508003B1038B5064D0023044608462B60FEF79DFF80
S31508003B20431C02D12B6803B1236038BD4001002035
S31508003B3038B5074D00230446084611462B60FEF7A4
S31508003B4098FF431C02D12B6803B1236038BD00BF20
S31508003B504001002038B5064D0023044608462B6070
S31508003B60FEF797FF431C02D12B6803B1236038BDCB
S31508003B704001002038B5074D044608461146002284
S31508003B802A601A46FEF790FF431C02D12B6803B140
S31508003B90236038BD400100200A44914200F1FF33FA
S31508003BA000D1704710B511F8014B03F8014F914247
S31508003BB0F9D110BD884210B501EB020402D984423E
S31508003BC0234607D8431EA14208D011F8012B03F853
S31508003BD0012FF8E7024401468A4200D110BD13F8C6
S31508003BE0014D02F8014DF7E70148FFF7F3BA00BFA8
S31508003BF0340100200148FFF7EEBA00BF3401002067
S31508003C002DE9F041804614460E4621B9BDE8F0413B
S31508003C101146FFF7B3BB2AB9FFF744FB25462846EA
S31508003C20BDE8F08100F02EF88442074602D8B4EBCE
S31508003C30500F12D821464046FFF7A0FB054600283C
S31508003C40EDD0BC422246314628BF3A46FFF7A4FFCC
S31508003C5031464046FFF726FBE1E73546DFE7000039
S31508003C6038B5074D04460846114600222A601A460A
S31508003C70FEF7BAFE431C02D12B6803B1236038BD98
S31508003C804001002051F8043C181F002BBCBF0B58FC
S31508003C90C0187047F8B500BFF8BC08BC9E46704708
S31108003CA0F8B500BFF8BC08BC9E4670478B
S31508003CAC456E7465722056616C696420506F727427
S31508003CBC0D00000048656C6C6F2046726F6D2053C2
S31508003CCC544D3332463432392025640D0A0000002F
S31508003CDC00000000000000000102030406070809A2
S31508003CEC0000000001020304100000200000000080
S31508003CFC00000000000000000000000000000000AA
S31508003D0C0000000000000000000000000000000099
S31508003D1C0000000000000000000000000000000089
S31508003D2C0000000000000000000000000000000079
S31508003D3C0000000000000000000000000000000069
S31508003D4C000000000000000000000000232D302BAE
S31508003D5C2000686C4C006566674546470030313272
S31508003D6C33343536373839414243444546003031C9
S31508003D7C3233343536373839616263646566000028
S30D08003D8C44C5FF7F0100000099
S30908003D94D50100083F
S30908003D98B10100085F
S31508003D9C10000000010000000024F40010000020B0
S31508003DAC00000000183D0008383D0008F83C0008E3
S31508003DBC00000000000000000000000000000000E9
S31508003DCC00000000000000000000000000000000D9
S31508003DDC00000000000000000000000000000000C9
S31508003DEC00000000000000000000000000000000B9
S31508003DFC00000000000000000000000000000000A9
S70508002605C7
